{
  "address": "0x1a9b6bBaC3e6ab98b910Fde18d47913814A06EEf",
  "abi": [
    {
      "anonymous": false,
      "inputs": [
        {
          "indexed": false,
          "internalType": "address",
          "name": "",
          "type": "address"
        },
        {
          "components": [
            {
              "internalType": "uint256",
              "name": "initAmount",
              "type": "uint256"
            },
            {
              "internalType": "uint256",
              "name": "remainAmount",
              "type": "uint256"
            },
            {
              "internalType": "uint256",
              "name": "alreadyPaidAmount",
              "type": "uint256"
            },
            {
              "internalType": "uint256",
              "name": "lastTimeClaimed",
              "type": "uint256"
            },
            {
              "internalType": "uint256",
              "name": "percent",
              "type": "uint256"
            }
          ],
          "indexed": false,
          "internalType": "struct BRIDGE.Reward",
          "name": "",
          "type": "tuple"
        }
      ],
      "name": "Claim",
      "type": "event"
    },
    {
      "anonymous": false,
      "inputs": [
        {
          "indexed": false,
          "internalType": "address",
          "name": "",
          "type": "address"
        }
      ],
      "name": "RemoveReward",
      "type": "event"
    },
    {
      "anonymous": false,
      "inputs": [
        {
          "indexed": true,
          "internalType": "bytes32",
          "name": "role",
          "type": "bytes32"
        },
        {
          "indexed": true,
          "internalType": "bytes32",
          "name": "previousAdminRole",
          "type": "bytes32"
        },
        {
          "indexed": true,
          "internalType": "bytes32",
          "name": "newAdminRole",
          "type": "bytes32"
        }
      ],
      "name": "RoleAdminChanged",
      "type": "event"
    },
    {
      "anonymous": false,
      "inputs": [
        {
          "indexed": true,
          "internalType": "bytes32",
          "name": "role",
          "type": "bytes32"
        },
        {
          "indexed": true,
          "internalType": "address",
          "name": "account",
          "type": "address"
        },
        {
          "indexed": true,
          "internalType": "address",
          "name": "sender",
          "type": "address"
        }
      ],
      "name": "RoleGranted",
      "type": "event"
    },
    {
      "anonymous": false,
      "inputs": [
        {
          "indexed": true,
          "internalType": "bytes32",
          "name": "role",
          "type": "bytes32"
        },
        {
          "indexed": true,
          "internalType": "address",
          "name": "account",
          "type": "address"
        },
        {
          "indexed": true,
          "internalType": "address",
          "name": "sender",
          "type": "address"
        }
      ],
      "name": "RoleRevoked",
      "type": "event"
    },
    {
      "anonymous": false,
      "inputs": [
        {
          "indexed": false,
          "internalType": "address[]",
          "name": "",
          "type": "address[]"
        },
        {
          "indexed": false,
          "internalType": "uint256[]",
          "name": "",
          "type": "uint256[]"
        }
      ],
      "name": "SetReward",
      "type": "event"
    },
    {
      "inputs": [],
      "name": "DEFAULT_ADMIN_ROLE",
      "outputs": [
        {
          "internalType": "bytes32",
          "name": "",
          "type": "bytes32"
        }
      ],
      "stateMutability": "view",
      "type": "function"
    },
    {
      "inputs": [],
      "name": "claim",
      "outputs": [],
      "stateMutability": "nonpayable",
      "type": "function"
    },
    {
      "inputs": [
        {
          "internalType": "bytes32",
          "name": "role",
          "type": "bytes32"
        }
      ],
      "name": "getRoleAdmin",
      "outputs": [
        {
          "internalType": "bytes32",
          "name": "",
          "type": "bytes32"
        }
      ],
      "stateMutability": "view",
      "type": "function"
    },
    {
      "inputs": [
        {
          "internalType": "bytes32",
          "name": "role",
          "type": "bytes32"
        },
        {
          "internalType": "address",
          "name": "account",
          "type": "address"
        }
      ],
      "name": "grantRole",
      "outputs": [],
      "stateMutability": "nonpayable",
      "type": "function"
    },
    {
      "inputs": [
        {
          "internalType": "bytes32",
          "name": "role",
          "type": "bytes32"
        },
        {
          "internalType": "address",
          "name": "account",
          "type": "address"
        }
      ],
      "name": "hasRole",
      "outputs": [
        {
          "internalType": "bool",
          "name": "",
          "type": "bool"
        }
      ],
      "stateMutability": "view",
      "type": "function"
    },
    {
      "inputs": [
        {
          "internalType": "address",
          "name": "_token",
          "type": "address"
        },
        {
          "internalType": "uint256",
          "name": "_timeToStartClaim",
          "type": "uint256"
        }
      ],
      "name": "initialize",
      "outputs": [],
      "stateMutability": "nonpayable",
      "type": "function"
    },
    {
      "inputs": [
        {
          "internalType": "address",
          "name": "_oldOwner",
          "type": "address"
        }
      ],
      "name": "removeReward",
      "outputs": [],
      "stateMutability": "nonpayable",
      "type": "function"
    },
    {
      "inputs": [
        {
          "internalType": "bytes32",
          "name": "role",
          "type": "bytes32"
        },
        {
          "internalType": "address",
          "name": "account",
          "type": "address"
        }
      ],
      "name": "renounceRole",
      "outputs": [],
      "stateMutability": "nonpayable",
      "type": "function"
    },
    {
      "inputs": [
        {
          "internalType": "bytes32",
          "name": "role",
          "type": "bytes32"
        },
        {
          "internalType": "address",
          "name": "account",
          "type": "address"
        }
      ],
      "name": "revokeRole",
      "outputs": [],
      "stateMutability": "nonpayable",
      "type": "function"
    },
    {
      "inputs": [
        {
          "internalType": "address",
          "name": "",
          "type": "address"
        }
      ],
      "name": "rewards",
      "outputs": [
        {
          "internalType": "uint256",
          "name": "initAmount",
          "type": "uint256"
        },
        {
          "internalType": "uint256",
          "name": "remainAmount",
          "type": "uint256"
        },
        {
          "internalType": "uint256",
          "name": "alreadyPaidAmount",
          "type": "uint256"
        },
        {
          "internalType": "uint256",
          "name": "lastTimeClaimed",
          "type": "uint256"
        },
        {
          "internalType": "uint256",
          "name": "percent",
          "type": "uint256"
        }
      ],
      "stateMutability": "view",
      "type": "function"
    },
    {
      "inputs": [
        {
          "internalType": "address",
          "name": "_address",
          "type": "address"
        }
      ],
      "name": "seeReward",
      "outputs": [
        {
          "components": [
            {
              "internalType": "uint256",
              "name": "initAmount",
              "type": "uint256"
            },
            {
              "internalType": "uint256",
              "name": "remainAmount",
              "type": "uint256"
            },
            {
              "internalType": "uint256",
              "name": "alreadyPaidAmount",
              "type": "uint256"
            },
            {
              "internalType": "uint256",
              "name": "lastTimeClaimed",
              "type": "uint256"
            },
            {
              "internalType": "uint256",
              "name": "percent",
              "type": "uint256"
            }
          ],
          "internalType": "struct BRIDGE.Reward",
          "name": "",
          "type": "tuple"
        }
      ],
      "stateMutability": "view",
      "type": "function"
    },
    {
      "inputs": [
        {
          "internalType": "address[]",
          "name": "_oldOwners",
          "type": "address[]"
        },
        {
          "internalType": "uint256[]",
          "name": "_amounts",
          "type": "uint256[]"
        }
      ],
      "name": "setReward",
      "outputs": [],
      "stateMutability": "nonpayable",
      "type": "function"
    },
    {
      "inputs": [
        {
          "internalType": "bytes4",
          "name": "interfaceId",
          "type": "bytes4"
        }
      ],
      "name": "supportsInterface",
      "outputs": [
        {
          "internalType": "bool",
          "name": "",
          "type": "bool"
        }
      ],
      "stateMutability": "view",
      "type": "function"
    },
    {
      "inputs": [],
      "name": "timeStartClaim",
      "outputs": [
        {
          "internalType": "uint256",
          "name": "",
          "type": "uint256"
        }
      ],
      "stateMutability": "view",
      "type": "function"
    },
    {
      "inputs": [],
      "name": "tokenAddress",
      "outputs": [
        {
          "internalType": "address",
          "name": "",
          "type": "address"
        }
      ],
      "stateMutability": "view",
      "type": "function"
    }
  ],
  "transactionHash": "0xe2ce7dd1b2b993d2946eae5c02eaa3a545611821d1f4bd4fb4b3685fa2a48a69",
  "args": [],
  "solcInputHash": "4a93bb0e7f2ad554edd3bb4d2810e018",
  "bytecode": "0x608060405234801561001057600080fd5b5061191a806100206000396000f3fe608060405234801561001057600080fd5b50600436106100f55760003560e01c80634e71d92d11610097578063a217fddf11610066578063a217fddf1461029b578063a4d5e67c146102a3578063cd6dc687146102b6578063d547741f146102c957600080fd5b80634e71d92d1461024257806385eddeea1461024a57806391d148541461025d5780639d76ea581461027057600080fd5b806314e0f50b116100d357806314e0f50b146101e0578063248a9ca3146101f75780632f2ff15d1461021a57806336568abe1461022f57600080fd5b806301c0222a146100fa57806301ffc9a7146101585780630700037d1461017b575b600080fd5b61010d610108366004611400565b6102dc565b60405161014f9190600060a082019050825182526020830151602083015260408301516040830152606083015160608301526080830151608083015292915050565b60405180910390f35b61016b610166366004611573565b610366565b604051901515815260200161014f565b6101b8610189366004611400565b60cb60205260009081526040902080546001820154600283015460038401546004909401549293919290919085565b604080519586526020860194909452928401919091526060830152608082015260a00161014f565b6101e960ca5481565b60405190815260200161014f565b6101e961020536600461152e565b60009081526065602052604090206001015490565b61022d610228366004611547565b61039d565b005b61022d61023d366004611547565b6103c8565b61022d61044b565b61022d610258366004611445565b610a50565b61016b61026b366004611547565b610ccb565b60c954610283906001600160a01b031681565b6040516001600160a01b03909116815260200161014f565b6101e9600081565b61022d6102b1366004611400565b610cf6565b61022d6102c436600461141b565b610d70565b61022d6102d7366004611547565b610e10565b61030e6040518060a0016040528060008152602001600081526020016000815260200160008152602001600081525090565b506001600160a01b0316600090815260cb6020908152604091829020825160a0810184528154815260018201549281019290925260028101549282019290925260038201546060820152600490910154608082015290565b60006001600160e01b03198216637965db0b60e01b148061039757506301ffc9a760e01b6001600160e01b03198316145b92915050565b6000828152606560205260409020600101546103b98133610e36565b6103c38383610e9a565b505050565b6001600160a01b038116331461043d5760405162461bcd60e51b815260206004820152602f60248201527f416363657373436f6e74726f6c3a2063616e206f6e6c792072656e6f756e636560448201526e103937b632b9903337b91039b2b63360891b60648201526084015b60405180910390fd5b6104478282610f20565b5050565b33600090815260cb602052604090206003015461047690429061047190620151806117d0565b610f87565b33600090815260cb602052604090206003015461049690620151806117d0565b4210156104e55760405162461bcd60e51b815260206004820152601b60248201527f43616e6e6f7420636c61696d207965742063617573652074696d6500000000006044820152606401610434565b33600090815260cb60205260409020600101546105445760405162461bcd60e51b815260206004820152601e60248201527f43616e6e6f7420636c61696d2072656d61696e416d6f756e74206973203000006044820152606401610434565b33600090815260cb602052604090206004015468056bc75e2d63100000116105ae5760405162461bcd60e51b815260206004820152601b60248201527f43616e6e6f7420636c61696d2070657263656e742069732031303000000000006044820152606401610434565b33600090815260cb602052604081206003015481906105dc9062015180906105d69042611829565b90610fcd565b90506106088160405180604001604052806008815260200167686f77206d616e7960c01b815250610fe0565b610619816604e71a49ca4000611025565b915061064d82604051806040016040528060078152602001661c195c98d95b9d60ca1b815250670de0b6b3a7640000611031565b6000610683670de0b6b3a7640000841160405180604001604052806008815260200167717565206572657360c01b815250611078565b670de0b6b3a76400008311156106ea5733600090815260cb60205260409020600401546106b890670de0b6b3a7640000611829565b90506106e581604051806040016040528060098152602001681c1959595c98d95b9d60ba1b815250610fe0565b6106ed565b50815b670de0b6b3a76400008111156107455760405162461bcd60e51b815260206004820152601f60248201527f50657263656e74206861766520746f206265206c6573732074616820313030006044820152606401610434565b600081116107955760405162461bcd60e51b815260206004820152601e60248201527f50657263656e74206861766520746f206265206d6f7265207468616e203000006044820152606401610434565b33600090815260cb60205260409020546107e3906107c190670de0b6b3a7640000906105d69085611025565b604051806040016040528060048152602001630706167360e41b815250610fe0565b33600090815260cb602052604090206001810154905461081190670de0b6b3a7640000906105d69085611025565b11156108515760405162461bcd60e51b815260206004820152600f60248201526e416d6f756e742069732077726f6e6760881b6044820152606401610434565b60c95433600081815260cb60205260409020546001600160a01b039092169163a9059cbb919061088f90670de0b6b3a7640000906105d69087611025565b6040516001600160e01b031960e085901b1681526001600160a01b0390921660048301526024820152604401602060405180830381600087803b1580156108d557600080fd5b505af11580156108e9573d6000803e3d6000fd5b505050506040513d601f19601f8201168201806040525081019061090d919061150c565b5033600090815260cb602052604090205461093690670de0b6b3a7640000906105d69084611025565b33600090815260cb602052604081206001018054909190610958908490611829565b909155505033600090815260cb602052604090205461098590670de0b6b3a7640000906105d69084611025565b33600090815260cb6020526040812060020180549091906109a79084906117d0565b909155505033600090815260cb6020526040812060040180548392906109ce9084906117d0565b909155505033600081815260cb6020908152604091829020426003820181905583519485528154928501929092526001810154848401526002810154606085015260808401919091526004015460a0830152517fddd867bc1213aa958a8b89455ab780de04d78463a195f4112294599ee08b12bb9181900360c00190a1505050565b6000610a5c8133610e36565b8151835114610a9d5760405162461bcd60e51b815260206004820152600d60248201526c08ae2eac2d8e640d8cadccee8d609b1b6044820152606401610434565b6000805b8351811015610ae357838181518110610abc57610abc6118b8565b602002602001015182610acf91906117d0565b915080610adb81611887565b915050610aa1565b50610b0b81604051806040016040528060058152602001641d1bdd185b60da1b815250610fe0565b60c9546040516323b872dd60e01b8152336004820152306024820152604481018390526001600160a01b03909116906323b872dd90606401602060405180830381600087803b158015610b5d57600080fd5b505af1158015610b71573d6000803e3d6000fd5b505050506040513d601f19601f82011682018060405250810190610b95919061150c565b5060005b8451811015610c8b5760006040518060a00160405280868481518110610bc157610bc16118b8565b60200260200101518152602001868481518110610be057610be06118b8565b602002602001015181526020016000815260200160ca548152602001600081525090508060cb6000888581518110610c1a57610c1a6118b8565b60200260200101516001600160a01b03166001600160a01b031681526020019081526020016000206000820151816000015560208201518160010155604082015181600201556060820151816003015560808201518160040155905050508080610c8390611887565b915050610b99565b507f32b42f89f0ac0564d1b04b352b0cd121e08a99c083357fb7f534c5147890f4858484604051610cbd92919061163e565b60405180910390a150505050565b60009182526065602090815260408084206001600160a01b0393909316845291905290205460ff1690565b6000610d028133610e36565b6001600160a01b038216600081815260cb602090815260408083208381556001810184905560028101849055600381018490556004019290925590519182527f963b7c735475147a62c589c2d7cb8ec4b0a6b7af4f97373d79ebfa42ab8aa7dc910160405180910390a15050565b600054610100900460ff1680610d89575060005460ff16155b610da55760405162461bcd60e51b8152600401610434906116eb565b600054610100900460ff16158015610dc7576000805461ffff19166101011790555b610dcf6110bd565b610dda600033611141565b60c980546001600160a01b0319166001600160a01b03851617905560ca82905580156103c3576000805461ff0019169055505050565b600082815260656020526040902060010154610e2c8133610e36565b6103c38383610f20565b610e408282610ccb565b61044757610e58816001600160a01b0316601461114b565b610e6383602061114b565b604051602001610e749291906115c9565b60408051601f198184030181529082905262461bcd60e51b8252610434916004016116d8565b610ea48282610ccb565b6104475760008281526065602090815260408083206001600160a01b03851684529091529020805460ff19166001179055610edc3390565b6001600160a01b0316816001600160a01b0316837f2f8788117e7eff1d82e926ec794901d17c78024a50270940304540a733656f0d60405160405180910390a45050565b610f2a8282610ccb565b156104475760008281526065602090815260408083206001600160a01b0385168085529252808320805460ff1916905551339285917ff6391f5c32d9c69d2a47ea670b442974b53935d1edc7fd64eb21e047a839171b9190a45050565b60405160248101839052604481018290526104479060640160408051601f198184030181529190526020810180516001600160e01b031662d81ed360e71b1790526112e7565b6000610fd982846117e8565b9392505050565b6104478282604051602401610ff6929190611739565b60408051601f198184030181529190526020810180516001600160e01b0316630fa3f34560e01b1790526112e7565b6000610fd9828461180a565b6103c383838360405160240161104993929190611752565b60408051601f198184030181529190526020810180516001600160e01b0316635b6de83f60e01b1790526112e7565b610447828260405160240161108e9291906116b5565b60408051601f198184030181529190526020810180516001600160e01b0316638feac52560e01b1790526112e7565b600054610100900460ff16806110d6575060005460ff16155b6110f25760405162461bcd60e51b8152600401610434906116eb565b600054610100900460ff16158015611114576000805461ffff19166101011790555b61111c611308565b611124611308565b61112c611308565b801561113e576000805461ff00191690555b50565b6104478282610e9a565b6060600061115a83600261180a565b6111659060026117d0565b67ffffffffffffffff81111561117d5761117d6118ce565b6040519080825280601f01601f1916602001820160405280156111a7576020820181803683370190505b509050600360fc1b816000815181106111c2576111c26118b8565b60200101906001600160f81b031916908160001a905350600f60fb1b816001815181106111f1576111f16118b8565b60200101906001600160f81b031916908160001a905350600061121584600261180a565b6112209060016117d0565b90505b6001811115611298576f181899199a1a9b1b9c1cb0b131b232b360811b85600f1660108110611254576112546118b8565b1a60f81b82828151811061126a5761126a6118b8565b60200101906001600160f81b031916908160001a90535060049490941c9361129181611870565b9050611223565b508315610fd95760405162461bcd60e51b815260206004820181905260248201527f537472696e67733a20686578206c656e67746820696e73756666696369656e746044820152606401610434565b80516a636f6e736f6c652e6c6f67602083016000808483855afa5050505050565b600054610100900460ff1680611321575060005460ff16155b61133d5760405162461bcd60e51b8152600401610434906116eb565b600054610100900460ff1615801561112c576000805461ffff1916610101179055801561113e576000805461ff001916905550565b80356001600160a01b038116811461138957600080fd5b919050565b600082601f83011261139f57600080fd5b813560206113b46113af836117ac565b61177b565b80838252828201915082860187848660051b89010111156113d457600080fd5b60005b858110156113f3578135845292840192908401906001016113d7565b5090979650505050505050565b60006020828403121561141257600080fd5b610fd982611372565b6000806040838503121561142e57600080fd5b61143783611372565b946020939093013593505050565b6000806040838503121561145857600080fd5b823567ffffffffffffffff8082111561147057600080fd5b818501915085601f83011261148457600080fd5b813560206114946113af836117ac565b8083825282820191508286018a848660051b89010111156114b457600080fd5b600096505b848710156114de576114ca81611372565b8352600196909601959183019183016114b9565b50965050860135925050808211156114f557600080fd5b506115028582860161138e565b9150509250929050565b60006020828403121561151e57600080fd5b81518015158114610fd957600080fd5b60006020828403121561154057600080fd5b5035919050565b6000806040838503121561155a57600080fd5b8235915061156a60208401611372565b90509250929050565b60006020828403121561158557600080fd5b81356001600160e01b031981168114610fd957600080fd5b600081518084526115b5816020860160208601611840565b601f01601f19169290920160200192915050565b7f416363657373436f6e74726f6c3a206163636f756e7420000000000000000000815260008351611601816017850160208801611840565b7001034b99036b4b9b9b4b733903937b6329607d1b6017918401918201528351611632816028840160208801611840565b01602801949350505050565b604080825283519082018190526000906020906060840190828701845b828110156116805781516001600160a01b03168452928401929084019060010161165b565b5050508381038285015284518082528583019183019060005b818110156113f357835183529284019291840191600101611699565b82151581526040602082015260006116d0604083018461159d565b949350505050565b602081526000610fd9602083018461159d565b6020808252602e908201527f496e697469616c697a61626c653a20636f6e747261637420697320616c72656160408201526d191e481a5b9a5d1a585b1a5e995960921b606082015260800190565b8281526040602082015260006116d0604083018461159d565b83815260606020820152600061176b606083018561159d565b9050826040830152949350505050565b604051601f8201601f1916810167ffffffffffffffff811182821017156117a4576117a46118ce565b604052919050565b600067ffffffffffffffff8211156117c6576117c66118ce565b5060051b60200190565b600082198211156117e3576117e36118a2565b500190565b60008261180557634e487b7160e01b600052601260045260246000fd5b500490565b6000816000190483118215151615611824576118246118a2565b500290565b60008282101561183b5761183b6118a2565b500390565b60005b8381101561185b578181015183820152602001611843565b8381111561186a576000848401525b50505050565b60008161187f5761187f6118a2565b506000190190565b600060001982141561189b5761189b6118a2565b5060010190565b634e487b7160e01b600052601160045260246000fd5b634e487b7160e01b600052603260045260246000fd5b634e487b7160e01b600052604160045260246000fdfea26469706673582212205ab122215d6adbdd04e4f522cd7fd492df11dc7b3de31a62b0591bbcfb52dfaf64736f6c63430008070033",
  "devdoc": {
    "author": "crisolita",
    "kind": "dev",
    "methods": {
      "getRoleAdmin(bytes32)": {
        "details": "Returns the admin role that controls `role`. See {grantRole} and {revokeRole}. To change a role's admin, use {_setRoleAdmin}."
      },
      "grantRole(bytes32,address)": {
        "details": "Grants `role` to `account`. If `account` had not been already granted `role`, emits a {RoleGranted} event. Requirements: - the caller must have ``role``'s admin role."
      },
      "hasRole(bytes32,address)": {
        "details": "Returns `true` if `account` has been granted `role`."
      },
      "renounceRole(bytes32,address)": {
        "details": "Revokes `role` from the calling account. Roles are often managed via {grantRole} and {revokeRole}: this function's purpose is to provide a mechanism for accounts to lose their privileges if they are compromised (such as when a trusted device is misplaced). If the calling account had been granted `role`, emits a {RoleRevoked} event. Requirements: - the caller must be `account`."
      },
      "revokeRole(bytes32,address)": {
        "details": "Revokes `role` from `account`. If `account` had been granted `role`, emits a {RoleRevoked} event. Requirements: - the caller must have ``role``'s admin role."
      },
      "supportsInterface(bytes4)": {
        "details": "See {IERC165-supportsInterface}."
      }
    },
    "title": "Sale",
    "version": 1
  },
  "userdoc": {
    "kind": "user",
    "methods": {},
    "notice": "this contract allow create phases for mint token and transfer the funds",
    "version": 1
  },
  "storageLayout": {
    "storage": [
      {
        "astId": 459,
        "contract": "contracts/BRIDGE.sol:BRIDGE",
        "label": "_initialized",
        "offset": 0,
        "slot": "0",
        "type": "t_bool"
      },
      {
        "astId": 462,
        "contract": "contracts/BRIDGE.sol:BRIDGE",
        "label": "_initializing",
        "offset": 1,
        "slot": "0",
        "type": "t_bool"
      },
      {
        "astId": 600,
        "contract": "contracts/BRIDGE.sol:BRIDGE",
        "label": "__gap",
        "offset": 0,
        "slot": "1",
        "type": "t_array(t_uint256)50_storage"
      },
      {
        "astId": 849,
        "contract": "contracts/BRIDGE.sol:BRIDGE",
        "label": "__gap",
        "offset": 0,
        "slot": "51",
        "type": "t_array(t_uint256)50_storage"
      },
      {
        "astId": 94,
        "contract": "contracts/BRIDGE.sol:BRIDGE",
        "label": "_roles",
        "offset": 0,
        "slot": "101",
        "type": "t_mapping(t_bytes32,t_struct(RoleData)89_storage)"
      },
      {
        "astId": 379,
        "contract": "contracts/BRIDGE.sol:BRIDGE",
        "label": "__gap",
        "offset": 0,
        "slot": "102",
        "type": "t_array(t_uint256)49_storage"
      },
      {
        "astId": 513,
        "contract": "contracts/BRIDGE.sol:BRIDGE",
        "label": "_status",
        "offset": 0,
        "slot": "151",
        "type": "t_uint256"
      },
      {
        "astId": 556,
        "contract": "contracts/BRIDGE.sol:BRIDGE",
        "label": "__gap",
        "offset": 0,
        "slot": "152",
        "type": "t_array(t_uint256)49_storage"
      },
      {
        "astId": 4920,
        "contract": "contracts/BRIDGE.sol:BRIDGE",
        "label": "tokenAddress",
        "offset": 0,
        "slot": "201",
        "type": "t_address"
      },
      {
        "astId": 4922,
        "contract": "contracts/BRIDGE.sol:BRIDGE",
        "label": "timeStartClaim",
        "offset": 0,
        "slot": "202",
        "type": "t_uint256"
      },
      {
        "astId": 4938,
        "contract": "contracts/BRIDGE.sol:BRIDGE",
        "label": "rewards",
        "offset": 0,
        "slot": "203",
        "type": "t_mapping(t_address,t_struct(Reward)4933_storage)"
      }
    ],
    "types": {
      "t_address": {
        "encoding": "inplace",
        "label": "address",
        "numberOfBytes": "20"
      },
      "t_array(t_uint256)49_storage": {
        "base": "t_uint256",
        "encoding": "inplace",
        "label": "uint256[49]",
        "numberOfBytes": "1568"
      },
      "t_array(t_uint256)50_storage": {
        "base": "t_uint256",
        "encoding": "inplace",
        "label": "uint256[50]",
        "numberOfBytes": "1600"
      },
      "t_bool": {
        "encoding": "inplace",
        "label": "bool",
        "numberOfBytes": "1"
      },
      "t_bytes32": {
        "encoding": "inplace",
        "label": "bytes32",
        "numberOfBytes": "32"
      },
      "t_mapping(t_address,t_bool)": {
        "encoding": "mapping",
        "key": "t_address",
        "label": "mapping(address => bool)",
        "numberOfBytes": "32",
        "value": "t_bool"
      },
      "t_mapping(t_address,t_struct(Reward)4933_storage)": {
        "encoding": "mapping",
        "key": "t_address",
        "label": "mapping(address => struct BRIDGE.Reward)",
        "numberOfBytes": "32",
        "value": "t_struct(Reward)4933_storage"
      },
      "t_mapping(t_bytes32,t_struct(RoleData)89_storage)": {
        "encoding": "mapping",
        "key": "t_bytes32",
        "label": "mapping(bytes32 => struct AccessControlUpgradeable.RoleData)",
        "numberOfBytes": "32",
        "value": "t_struct(RoleData)89_storage"
      },
      "t_struct(Reward)4933_storage": {
        "encoding": "inplace",
        "label": "struct BRIDGE.Reward",
        "members": [
          {
            "astId": 4924,
            "contract": "contracts/BRIDGE.sol:BRIDGE",
            "label": "initAmount",
            "offset": 0,
            "slot": "0",
            "type": "t_uint256"
          },
          {
            "astId": 4926,
            "contract": "contracts/BRIDGE.sol:BRIDGE",
            "label": "remainAmount",
            "offset": 0,
            "slot": "1",
            "type": "t_uint256"
          },
          {
            "astId": 4928,
            "contract": "contracts/BRIDGE.sol:BRIDGE",
            "label": "alreadyPaidAmount",
            "offset": 0,
            "slot": "2",
            "type": "t_uint256"
          },
          {
            "astId": 4930,
            "contract": "contracts/BRIDGE.sol:BRIDGE",
            "label": "lastTimeClaimed",
            "offset": 0,
            "slot": "3",
            "type": "t_uint256"
          },
          {
            "astId": 4932,
            "contract": "contracts/BRIDGE.sol:BRIDGE",
            "label": "percent",
            "offset": 0,
            "slot": "4",
            "type": "t_uint256"
          }
        ],
        "numberOfBytes": "160"
      },
      "t_struct(RoleData)89_storage": {
        "encoding": "inplace",
        "label": "struct AccessControlUpgradeable.RoleData",
        "members": [
          {
            "astId": 86,
            "contract": "contracts/BRIDGE.sol:BRIDGE",
            "label": "members",
            "offset": 0,
            "slot": "0",
            "type": "t_mapping(t_address,t_bool)"
          },
          {
            "astId": 88,
            "contract": "contracts/BRIDGE.sol:BRIDGE",
            "label": "adminRole",
            "offset": 0,
            "slot": "1",
            "type": "t_bytes32"
          }
        ],
        "numberOfBytes": "64"
      },
      "t_uint256": {
        "encoding": "inplace",
        "label": "uint256",
        "numberOfBytes": "32"
      }
    }
  }
}