{
  "address": "0x4D7A91ECf1aD15Df50739c513aCf0214BF7eB174",
  "abi": [
    {
      "anonymous": false,
      "inputs": [
        {
          "indexed": false,
          "internalType": "uint256",
          "name": "",
          "type": "uint256"
        },
        {
          "indexed": false,
          "internalType": "address",
          "name": "",
          "type": "address"
        },
        {
          "indexed": false,
          "internalType": "uint256",
          "name": "",
          "type": "uint256"
        },
        {
          "indexed": false,
          "internalType": "uint256",
          "name": "",
          "type": "uint256"
        },
        {
          "indexed": false,
          "internalType": "uint256",
          "name": "",
          "type": "uint256"
        }
      ],
      "name": "PreWithdraw",
      "type": "event"
    },
    {
      "anonymous": false,
      "inputs": [
        {
          "indexed": true,
          "internalType": "address",
          "name": "user",
          "type": "address"
        },
        {
          "indexed": false,
          "internalType": "uint256",
          "name": "amount",
          "type": "uint256"
        }
      ],
      "name": "Staked",
      "type": "event"
    },
    {
      "anonymous": false,
      "inputs": [
        {
          "indexed": true,
          "internalType": "address",
          "name": "user",
          "type": "address"
        },
        {
          "indexed": false,
          "internalType": "uint256",
          "name": "amount",
          "type": "uint256"
        }
      ],
      "name": "Withdrawn",
      "type": "event"
    },
    {
      "inputs": [],
      "name": "idForPreWithdra",
      "outputs": [
        {
          "internalType": "uint256",
          "name": "",
          "type": "uint256"
        }
      ],
      "stateMutability": "view",
      "type": "function"
    },
    {
      "inputs": [
        {
          "internalType": "address",
          "name": "_token2",
          "type": "address"
        },
        {
          "internalType": "address",
          "name": "_token1",
          "type": "address"
        },
        {
          "internalType": "uint256[2]",
          "name": "_timeInSeconds",
          "type": "uint256[2]"
        },
        {
          "internalType": "uint256[2]",
          "name": "_percents",
          "type": "uint256[2]"
        }
      ],
      "name": "initialize",
      "outputs": [],
      "stateMutability": "nonpayable",
      "type": "function"
    },
    {
      "inputs": [],
      "name": "lastUpdateTime",
      "outputs": [
        {
          "internalType": "uint256",
          "name": "",
          "type": "uint256"
        }
      ],
      "stateMutability": "view",
      "type": "function"
    },
    {
      "inputs": [
        {
          "internalType": "uint256",
          "name": "",
          "type": "uint256"
        }
      ],
      "name": "percents",
      "outputs": [
        {
          "internalType": "uint256",
          "name": "",
          "type": "uint256"
        }
      ],
      "stateMutability": "view",
      "type": "function"
    },
    {
      "inputs": [],
      "name": "periodFinish",
      "outputs": [
        {
          "internalType": "uint256",
          "name": "",
          "type": "uint256"
        }
      ],
      "stateMutability": "view",
      "type": "function"
    },
    {
      "inputs": [
        {
          "internalType": "uint256",
          "name": "amount",
          "type": "uint256"
        },
        {
          "internalType": "uint256",
          "name": "_timeInSecondsToUser",
          "type": "uint256"
        }
      ],
      "name": "preWithdraw",
      "outputs": [],
      "stateMutability": "nonpayable",
      "type": "function"
    },
    {
      "inputs": [
        {
          "internalType": "uint256",
          "name": "_id",
          "type": "uint256"
        }
      ],
      "name": "preWithdrawAmounById",
      "outputs": [
        {
          "internalType": "uint256",
          "name": "",
          "type": "uint256"
        }
      ],
      "stateMutability": "view",
      "type": "function"
    },
    {
      "inputs": [
        {
          "internalType": "uint256",
          "name": "",
          "type": "uint256"
        }
      ],
      "name": "preWithdrawData",
      "outputs": [
        {
          "internalType": "uint256",
          "name": "id",
          "type": "uint256"
        },
        {
          "internalType": "address",
          "name": "user",
          "type": "address"
        },
        {
          "internalType": "uint256",
          "name": "amount",
          "type": "uint256"
        },
        {
          "internalType": "uint256",
          "name": "timeStart",
          "type": "uint256"
        },
        {
          "internalType": "uint256",
          "name": "timeEnd",
          "type": "uint256"
        },
        {
          "internalType": "uint256",
          "name": "percent",
          "type": "uint256"
        },
        {
          "internalType": "enum FARM.StatusPreWithdraw",
          "name": "status",
          "type": "uint8"
        }
      ],
      "stateMutability": "view",
      "type": "function"
    },
    {
      "inputs": [
        {
          "internalType": "uint256",
          "name": "_id",
          "type": "uint256"
        }
      ],
      "name": "preWithdrawDataById",
      "outputs": [
        {
          "components": [
            {
              "internalType": "uint256",
              "name": "id",
              "type": "uint256"
            },
            {
              "internalType": "address",
              "name": "user",
              "type": "address"
            },
            {
              "internalType": "uint256",
              "name": "amount",
              "type": "uint256"
            },
            {
              "internalType": "uint256",
              "name": "timeStart",
              "type": "uint256"
            },
            {
              "internalType": "uint256",
              "name": "timeEnd",
              "type": "uint256"
            },
            {
              "internalType": "uint256",
              "name": "percent",
              "type": "uint256"
            },
            {
              "internalType": "enum FARM.StatusPreWithdraw",
              "name": "status",
              "type": "uint8"
            }
          ],
          "internalType": "struct FARM.PreWithdrawUser",
          "name": "",
          "type": "tuple"
        }
      ],
      "stateMutability": "view",
      "type": "function"
    },
    {
      "inputs": [
        {
          "internalType": "address",
          "name": "_user",
          "type": "address"
        }
      ],
      "name": "preWithdrawDataByUser",
      "outputs": [
        {
          "components": [
            {
              "internalType": "uint256",
              "name": "id",
              "type": "uint256"
            },
            {
              "internalType": "address",
              "name": "user",
              "type": "address"
            },
            {
              "internalType": "uint256",
              "name": "amount",
              "type": "uint256"
            },
            {
              "internalType": "uint256",
              "name": "timeStart",
              "type": "uint256"
            },
            {
              "internalType": "uint256",
              "name": "timeEnd",
              "type": "uint256"
            },
            {
              "internalType": "uint256",
              "name": "percent",
              "type": "uint256"
            },
            {
              "internalType": "enum FARM.StatusPreWithdraw",
              "name": "status",
              "type": "uint8"
            }
          ],
          "internalType": "struct FARM.PreWithdrawUser[]",
          "name": "",
          "type": "tuple[]"
        }
      ],
      "stateMutability": "view",
      "type": "function"
    },
    {
      "inputs": [
        {
          "internalType": "uint256",
          "name": "_id",
          "type": "uint256"
        }
      ],
      "name": "preWithdrawPercentById",
      "outputs": [
        {
          "internalType": "uint256",
          "name": "",
          "type": "uint256"
        }
      ],
      "stateMutability": "view",
      "type": "function"
    },
    {
      "inputs": [],
      "name": "rewardPerTokenStored",
      "outputs": [
        {
          "internalType": "uint256",
          "name": "",
          "type": "uint256"
        }
      ],
      "stateMutability": "view",
      "type": "function"
    },
    {
      "inputs": [],
      "name": "rewardRate",
      "outputs": [
        {
          "internalType": "uint256",
          "name": "",
          "type": "uint256"
        }
      ],
      "stateMutability": "view",
      "type": "function"
    },
    {
      "inputs": [
        {
          "internalType": "address",
          "name": "",
          "type": "address"
        }
      ],
      "name": "rewards",
      "outputs": [
        {
          "internalType": "uint256",
          "name": "",
          "type": "uint256"
        }
      ],
      "stateMutability": "view",
      "type": "function"
    },
    {
      "inputs": [],
      "name": "rewardsToken",
      "outputs": [
        {
          "internalType": "contract ERC20Burnable",
          "name": "",
          "type": "address"
        }
      ],
      "stateMutability": "view",
      "type": "function"
    },
    {
      "inputs": [
        {
          "internalType": "uint256",
          "name": "amount",
          "type": "uint256"
        }
      ],
      "name": "stake",
      "outputs": [],
      "stateMutability": "nonpayable",
      "type": "function"
    },
    {
      "inputs": [],
      "name": "stakingToken",
      "outputs": [
        {
          "internalType": "contract ERC20Burnable",
          "name": "",
          "type": "address"
        }
      ],
      "stateMutability": "view",
      "type": "function"
    },
    {
      "inputs": [
        {
          "internalType": "uint256",
          "name": "",
          "type": "uint256"
        }
      ],
      "name": "timeInSeconds",
      "outputs": [
        {
          "internalType": "uint256",
          "name": "",
          "type": "uint256"
        }
      ],
      "stateMutability": "view",
      "type": "function"
    },
    {
      "inputs": [
        {
          "internalType": "address",
          "name": "",
          "type": "address"
        },
        {
          "internalType": "uint256",
          "name": "",
          "type": "uint256"
        }
      ],
      "name": "userPreWithdraws",
      "outputs": [
        {
          "internalType": "uint256",
          "name": "id",
          "type": "uint256"
        },
        {
          "internalType": "address",
          "name": "user",
          "type": "address"
        },
        {
          "internalType": "uint256",
          "name": "amount",
          "type": "uint256"
        },
        {
          "internalType": "uint256",
          "name": "timeStart",
          "type": "uint256"
        },
        {
          "internalType": "uint256",
          "name": "timeEnd",
          "type": "uint256"
        },
        {
          "internalType": "uint256",
          "name": "percent",
          "type": "uint256"
        },
        {
          "internalType": "enum FARM.StatusPreWithdraw",
          "name": "status",
          "type": "uint8"
        }
      ],
      "stateMutability": "view",
      "type": "function"
    },
    {
      "inputs": [
        {
          "internalType": "address",
          "name": "",
          "type": "address"
        }
      ],
      "name": "userRewardPerTokenPaid",
      "outputs": [
        {
          "internalType": "uint256",
          "name": "",
          "type": "uint256"
        }
      ],
      "stateMutability": "view",
      "type": "function"
    },
    {
      "inputs": [
        {
          "internalType": "uint256",
          "name": "_idPreWithdraw",
          "type": "uint256"
        }
      ],
      "name": "withdraw",
      "outputs": [],
      "stateMutability": "nonpayable",
      "type": "function"
    }
  ],
  "transactionHash": "0xaa992f27d58bac44584cd972cee56def01df9b57fafc3286b413924755ac56ff",
  "args": [],
  "solcInputHash": "e6029a2774580a8d2e2a7577029ff921",
  "bytecode": "0x608060405260006003556064600455600060075534801561001f57600080fd5b506001600055611a9a806100346000396000f3fe608060405234801561001057600080fd5b50600436106101375760003560e01c80638b876347116100b8578063c8f33c911161007c578063c8f33c9114610315578063d1af0c7d1461031e578063df136d6514610337578063e824dd1c14610340578063e92288d214610360578063ebe2b12b1461037357600080fd5b80638b8763471461029c5780638db1342d146102bc57806393aa4b38146102cf578063a694fc3a146102e2578063c10d3e79146102f557600080fd5b80634d63457e116100ff5780634d63457e146101ca5780636dfb5b77146101ed57806372f702f31461024557806374df08d7146102705780637b0a47ee1461029357600080fd5b8063025919c81461013c5780630700037d1461016b5780632d2a12c2146101995780632e1a7d4d146101a257806334ed7804146101b7575b600080fd5b61014f61014a366004611735565b61037c565b6040516101629796959493929190611907565b60405180910390f35b61018b6101793660046116c4565b600e6020526000908152604090205481565b604051908152602001610162565b61018b60075481565b6101b56101b0366004611781565b6103e3565b005b61018b6101c5366004611781565b6107e3565b61018b6101d8366004611781565b60009081526013602052604090206005015490565b61014f6101fb366004611781565b601360205260009081526040902080546001820154600283015460038401546004850154600586015460069096015494956001600160a01b03909416949293919290919060ff1687565b600254610258906001600160a01b031681565b6040516001600160a01b039091168152602001610162565b61018b61027e366004611781565b60009081526013602052604090206002015490565b61018b60045481565b61018b6102aa3660046116c4565b600d6020526000908152604090205481565b61018b6102ca366004611781565b6107fa565b6101b56102dd36600461179a565b61080a565b6101b56102f0366004611781565b610bc4565b610308610303366004611781565b610d0b565b60405161016291906118f9565b61018b60055481565b600154610258906201000090046001600160a01b031681565b61018b60065481565b61035361034e3660046116c4565b610daa565b6040516101629190611876565b6101b561036e3660046116df565b610e9c565b61018b60035481565b6012602052816000526040600020818154811061039857600080fd5b600091825260209091206007909102018054600182015460028301546003840154600485015460058601546006909601549497506001600160a01b0390931695509093909260ff1687565b6002600054141561043b5760405162461bcd60e51b815260206004820152601f60248201527f5265656e7472616e637947756172643a207265656e7472616e742063616c6c0060448201526064015b60405180910390fd5b600260009081558181526013602052604090206004015481904210156104995760405162461bcd60e51b815260206004820152601360248201527210d85b9b9bdd081dda5d1a191c985dc81e595d606a1b6044820152606401610432565b6000818152601360205260409020600101546001600160a01b031633146104fa5760405162461bcd60e51b81526020600482015260156024820152742cb7ba9030b932903737ba103a34329037bbb732b960591b6044820152606401610432565b60008181526013602052604081206006015460ff16600181111561052057610520611a38565b1461056d5760405162461bcd60e51b815260206004820181905260248201527f5468697320707265576974686472617720697320616c726561647920646f6e656044820152606401610432565b6000818152601360205260409020600201546105bf5760405162461bcd60e51b8152602060048201526011602482015270043616e6e6f74207769746864726177203607c1b6044820152606401610432565b600082815260136020526040812060058101546002909101546064916105e4916119a5565b6105ee9190611983565b600084815260136020526040902060020154600f549192506106109190611032565b600f5560008381526013602090815260408083206002015433845260109092529091205461063d91611032565b60106000336001600160a01b03166001600160a01b03168152602001908152602001600020819055506106936040518060400160405280600b81526020016a139155d5c8105353d5539560aa1b81525082611047565b6002546106aa906001600160a01b03163383611090565b600280546000858152601360205260409020909101546001600160a01b03909116906342966c68906106dd9084906119c4565b6040518263ffffffff1660e01b81526004016106fb91815260200190565b600060405180830381600087803b15801561071557600080fd5b505af1158015610729573d6000803e3d6000fd5b505060015460008681526013602052604090819020600201549051630852cd8d60e31b81526004810191909152620100009091046001600160a01b031692506342966c689150602401600060405180830381600087803b15801561078c57600080fd5b505af11580156107a0573d6000803e3d6000fd5b50506040518381523392507f7084f5476618d8e60b11ef0d7d3f06914655adb8793e28ff7f018d4c76d505d5915060200160405180910390a25050600160005550565b600881600281106107f357600080fd5b0154905081565b600a81600281106107f357600080fd5b336000908152601060205260409020548211156108695760405162461bcd60e51b815260206004820152601f60248201527f5573657220646f65736e74206861766520656e6f7567746820616d6f756e74006044820152606401610432565b6008548110156108c75760405162461bcd60e51b815260206004820152602360248201527f54696d652073686f756c642062652067726561746572207468616e206d696e6960448201526236bab760e91b6064820152608401610432565b6009546000908211156108dd5750600b546108fb565b600954600b546108ee9084906119a5565b6108f89190611983565b90505b610927816040518060400160405280600a8152602001691b995dd4195c98d95b9d60b21b8152506110f8565b6007805490600061093783611a07565b90915550506001546040516323b872dd60e01b815233600482015230602482015260448101859052620100009091046001600160a01b0316906323b872dd90606401602060405180830381600087803b15801561099357600080fd5b505af11580156109a7573d6000803e3d6000fd5b505050506040513d601f19601f820116820180604052508101906109cb919061175f565b5060006040518060e001604052806007548152602001336001600160a01b031681526020018581526020014281526020018442610a08919061196b565b815260208101849052604001600090526007546000908152601360209081526040918290208351815590830151600180830180546001600160a01b0319166001600160a01b0390931692909217909155918301516002820155606083015160038201556080830151600482015560a0830151600582015560c0830151600682018054949550859492939192909160ff19909116908381811115610aad57610aad611a38565b0217905550503360009081526012602090815260408083208054600180820183559185529383902086516007909502019384559185015183830180546001600160a01b0319166001600160a01b039092169190911790558401516002830155606084015160038301556080840151600483015560a0840151600583015560c08401516006830180548695509192909160ff1916908381811115610b5257610b52611a38565b0217905550506007547ffd67150571d4bf6ce6c4af8285b1e02955965855c0109167889dbd1ddfcca1469150338642610b8b888261196b565b604080519586526001600160a01b039094166020860152928401919091526060830152608082015260a00160405180910390a150505050565b60026000541415610c175760405162461bcd60e51b815260206004820152601f60248201527f5265656e7472616e637947756172643a207265656e7472616e742063616c6c006044820152606401610432565b600260005580610c5a5760405162461bcd60e51b815260206004820152600e60248201526d043616e6e6f74207374616b6520360941b6044820152606401610432565b600f54610c67908261113d565b600f5533600090815260106020526040902054610c84908261113d565b33600081815260106020526040902091909155600254610cb1916001600160a01b03909116903084611149565b600154610cce906201000090046001600160a01b03163383611090565b60405181815233907f9e71bc8eea02a63969f509818f2dafb9254532904319f9dbda79b67bd34a5f3d9060200160405180910390a2506001600055565b610d1361155b565b600082815260136020908152604091829020825160e081018452815481526001808301546001600160a01b0316938201939093526002820154938101939093526003810154606084015260048101546080840152600581015460a08401526006810154909160c084019160ff1690811115610d9057610d90611a38565b6001811115610da157610da1611a38565b90525092915050565b6001600160a01b0381166000908152601260209081526040808320805482518185028101850190935280835260609492939192909184015b82821015610e915760008481526020908190206040805160e08101825260078602909201805483526001808201546001600160a01b0316948401949094526002810154918301919091526003810154606083015260048101546080830152600581015460a083015260068101549192909160c084019160ff90911690811115610e6d57610e6d611a38565b6001811115610e7e57610e7e611a38565b8152505081526020019060010190610de2565b505050509050919050565b600154610100900460ff1680610eb5575060015460ff16155b610f185760405162461bcd60e51b815260206004820152602e60248201527f496e697469616c697a61626c653a20636f6e747261637420697320616c72656160448201526d191e481a5b9a5d1a585b1a5e995960921b6064820152608401610432565b600154610100900460ff16158015610f3a576001805461ffff19166101011790555b610f4382611187565b610f835760405162461bcd60e51b8152602060048201526011602482015270050657263656e7473206f7665722031303607c1b6044820152606401610432565b6001805462010000600160b01b031916620100006001600160a01b038881169190910291909117909155600280546001600160a01b031916918616919091179055610fcd836111d7565b610fdb9060089060026115b1565b50610fe5826111d7565b610ff390600a9060026115b1565b50600a546008546000908152600c602052604080822092909255600b54600954825291902055801561102b576001805461ff00191690555b5050505050565b600061103e82846119c4565b90505b92915050565b61108c828260405160240161105d9291906118d7565b60408051601f198184030181529190526020810180516001600160e01b03166309710a9d60e41b1790526112ee565b5050565b6040516001600160a01b0383166024820152604481018290526110f390849063a9059cbb60e01b906064015b60408051601f198184030181529190526020810180516001600160e01b03166001600160e01b03199093169290921790915261130f565b505050565b61108c828260405160240161110e929190611952565b60408051601f198184030181529190526020810180516001600160e01b0316630fa3f34560e01b1790526112ee565b600061103e828461196b565b6040516001600160a01b03808516602483015283166044820152606481018290526111819085906323b872dd60e01b906084016110bc565b50505050565b60006001815b60028110156111d05760648482600281106111aa576111aa611a4e565b602002015111156111be57600091506111d0565b806111c881611a07565b91505061118d565b5092915050565b6111df6115ef565b8160005b6111ef600160026119c4565b8110156111d05760005b60016112068360026119c4565b61121091906119c4565b8110156112db578261122382600161196b565b6002811061123357611233611a4e565b602002015183826002811061124a5761124a611a4e565b602002015111156112c9578261126182600161196b565b6002811061127157611271611a4e565b602002015183826002811061128857611288611a4e565b602002015184836002811061129f5761129f611a4e565b60200201856112af85600161196b565b600281106112bf576112bf611a4e565b6020020191909152525b806112d381611a07565b9150506111f9565b50806112e681611a07565b9150506111e3565b80516a636f6e736f6c652e6c6f67602083016000808483855afa5050505050565b6000611364826040518060400160405280602081526020017f5361666545524332303a206c6f772d6c6576656c2063616c6c206661696c6564815250856001600160a01b03166113e19092919063ffffffff16565b8051909150156110f35780806020019051810190611382919061175f565b6110f35760405162461bcd60e51b815260206004820152602a60248201527f5361666545524332303a204552433230206f7065726174696f6e20646964206e6044820152691bdd081cdd58d8d9595960b21b6064820152608401610432565b60606113f084846000856113fa565b90505b9392505050565b60608247101561145b5760405162461bcd60e51b815260206004820152602660248201527f416464726573733a20696e73756666696369656e742062616c616e636520666f6044820152651c8818d85b1b60d21b6064820152608401610432565b843b6114a95760405162461bcd60e51b815260206004820152601d60248201527f416464726573733a2063616c6c20746f206e6f6e2d636f6e74726163740000006044820152606401610432565b600080866001600160a01b031685876040516114c5919061185a565b60006040518083038185875af1925050503d8060008114611502576040519150601f19603f3d011682016040523d82523d6000602084013e611507565b606091505b5091509150611517828286611522565b979650505050505050565b606083156115315750816113f3565b8251156115415782518084602001fd5b8160405162461bcd60e51b815260040161043291906118c4565b6040518060e001604052806000815260200160006001600160a01b0316815260200160008152602001600081526020016000815260200160008152602001600060018111156115ac576115ac611a38565b905290565b82600281019282156115df579160200282015b828111156115df5782518255916020019190600101906115c4565b506115eb92915061160d565b5090565b60405180604001604052806002906020820280368337509192915050565b5b808211156115eb576000815560010161160e565b80356001600160a01b038116811461163957600080fd5b919050565b600082601f83011261164f57600080fd5b6040516040810181811067ffffffffffffffff8211171561168057634e487b7160e01b600052604160045260246000fd5b806040525080838560408601111561169757600080fd5b60005b60028110156116b957813583526020928301929091019060010161169a565b509195945050505050565b6000602082840312156116d657600080fd5b61103e82611622565b60008060008060c085870312156116f557600080fd5b6116fe85611622565b935061170c60208601611622565b925061171b866040870161163e565b915061172a866080870161163e565b905092959194509250565b6000806040838503121561174857600080fd5b61175183611622565b946020939093013593505050565b60006020828403121561177157600080fd5b815180151581146113f357600080fd5b60006020828403121561179357600080fd5b5035919050565b600080604083850312156117ad57600080fd5b50508035926020909101359150565b600281106117da57634e487b7160e01b600052602160045260246000fd5b9052565b600081518084526117f68160208601602086016119db565b601f01601f19169290920160200192915050565b8051825260018060a01b03602082015116602083015260408101516040830152606081015160608301526080810151608083015260a081015160a083015260c08101516110f360c08401826117bc565b6000825161186c8184602087016119db565b9190910192915050565b6020808252825182820181905260009190848201906040850190845b818110156118b8576118a583855161180a565b9284019260e09290920191600101611892565b50909695505050505050565b60208152600061103e60208301846117de565b6040815260006118ea60408301856117de565b90508260208301529392505050565b60e08101611041828461180a565b8781526001600160a01b038716602082015260408101869052606081018590526080810184905260a0810183905260e0810161194660c08301846117bc565b98975050505050505050565b8281526040602082015260006113f060408301846117de565b6000821982111561197e5761197e611a22565b500190565b6000826119a057634e487b7160e01b600052601260045260246000fd5b500490565b60008160001904831182151516156119bf576119bf611a22565b500290565b6000828210156119d6576119d6611a22565b500390565b60005b838110156119f65781810151838201526020016119de565b838111156111815750506000910152565b6000600019821415611a1b57611a1b611a22565b5060010190565b634e487b7160e01b600052601160045260246000fd5b634e487b7160e01b600052602160045260246000fd5b634e487b7160e01b600052603260045260246000fdfea264697066735822122071519df47a15b725143cb6c5c16c990aaeecbd51523770709600e7f7a8fe0bc864736f6c63430008070033",
  "devdoc": {
    "kind": "dev",
    "methods": {},
    "version": 1
  },
  "userdoc": {
    "kind": "user",
    "methods": {},
    "version": 1
  },
  "storageLayout": {
    "storage": [
      {
        "astId": 1835,
        "contract": "contracts/FARM.sol:FARM",
        "label": "_status",
        "offset": 0,
        "slot": "0",
        "type": "t_uint256"
      },
      {
        "astId": 459,
        "contract": "contracts/FARM.sol:FARM",
        "label": "_initialized",
        "offset": 0,
        "slot": "1",
        "type": "t_bool"
      },
      {
        "astId": 462,
        "contract": "contracts/FARM.sol:FARM",
        "label": "_initializing",
        "offset": 1,
        "slot": "1",
        "type": "t_bool"
      },
      {
        "astId": 5340,
        "contract": "contracts/FARM.sol:FARM",
        "label": "rewardsToken",
        "offset": 2,
        "slot": "1",
        "type": "t_contract(ERC20Burnable)2511"
      },
      {
        "astId": 5343,
        "contract": "contracts/FARM.sol:FARM",
        "label": "stakingToken",
        "offset": 0,
        "slot": "2",
        "type": "t_contract(ERC20Burnable)2511"
      },
      {
        "astId": 5346,
        "contract": "contracts/FARM.sol:FARM",
        "label": "periodFinish",
        "offset": 0,
        "slot": "3",
        "type": "t_uint256"
      },
      {
        "astId": 5349,
        "contract": "contracts/FARM.sol:FARM",
        "label": "rewardRate",
        "offset": 0,
        "slot": "4",
        "type": "t_uint256"
      },
      {
        "astId": 5351,
        "contract": "contracts/FARM.sol:FARM",
        "label": "lastUpdateTime",
        "offset": 0,
        "slot": "5",
        "type": "t_uint256"
      },
      {
        "astId": 5353,
        "contract": "contracts/FARM.sol:FARM",
        "label": "rewardPerTokenStored",
        "offset": 0,
        "slot": "6",
        "type": "t_uint256"
      },
      {
        "astId": 5356,
        "contract": "contracts/FARM.sol:FARM",
        "label": "idForPreWithdra",
        "offset": 0,
        "slot": "7",
        "type": "t_uint256"
      },
      {
        "astId": 5360,
        "contract": "contracts/FARM.sol:FARM",
        "label": "timeInSeconds",
        "offset": 0,
        "slot": "8",
        "type": "t_array(t_uint256)2_storage"
      },
      {
        "astId": 5364,
        "contract": "contracts/FARM.sol:FARM",
        "label": "percents",
        "offset": 0,
        "slot": "10",
        "type": "t_array(t_uint256)2_storage"
      },
      {
        "astId": 5368,
        "contract": "contracts/FARM.sol:FARM",
        "label": "timePerPercent",
        "offset": 0,
        "slot": "12",
        "type": "t_mapping(t_uint256,t_uint256)"
      },
      {
        "astId": 5372,
        "contract": "contracts/FARM.sol:FARM",
        "label": "userRewardPerTokenPaid",
        "offset": 0,
        "slot": "13",
        "type": "t_mapping(t_address,t_uint256)"
      },
      {
        "astId": 5376,
        "contract": "contracts/FARM.sol:FARM",
        "label": "rewards",
        "offset": 0,
        "slot": "14",
        "type": "t_mapping(t_address,t_uint256)"
      },
      {
        "astId": 5378,
        "contract": "contracts/FARM.sol:FARM",
        "label": "_totalSupply",
        "offset": 0,
        "slot": "15",
        "type": "t_uint256"
      },
      {
        "astId": 5382,
        "contract": "contracts/FARM.sol:FARM",
        "label": "_balances",
        "offset": 0,
        "slot": "16",
        "type": "t_mapping(t_address,t_uint256)"
      },
      {
        "astId": 5387,
        "contract": "contracts/FARM.sol:FARM",
        "label": "claimUser",
        "offset": 0,
        "slot": "17",
        "type": "t_mapping(t_address,t_struct(ClaimUser)5337_storage)"
      },
      {
        "astId": 5393,
        "contract": "contracts/FARM.sol:FARM",
        "label": "userPreWithdraws",
        "offset": 0,
        "slot": "18",
        "type": "t_mapping(t_address,t_array(t_struct(PreWithdrawUser)5414_storage)dyn_storage)"
      },
      {
        "astId": 5398,
        "contract": "contracts/FARM.sol:FARM",
        "label": "preWithdrawData",
        "offset": 0,
        "slot": "19",
        "type": "t_mapping(t_uint256,t_struct(PreWithdrawUser)5414_storage)"
      }
    ],
    "types": {
      "t_address": {
        "encoding": "inplace",
        "label": "address",
        "numberOfBytes": "20"
      },
      "t_array(t_struct(PreWithdrawUser)5414_storage)dyn_storage": {
        "base": "t_struct(PreWithdrawUser)5414_storage",
        "encoding": "dynamic_array",
        "label": "struct FARM.PreWithdrawUser[]",
        "numberOfBytes": "32"
      },
      "t_array(t_uint256)2_storage": {
        "base": "t_uint256",
        "encoding": "inplace",
        "label": "uint256[2]",
        "numberOfBytes": "64"
      },
      "t_bool": {
        "encoding": "inplace",
        "label": "bool",
        "numberOfBytes": "1"
      },
      "t_contract(ERC20Burnable)2511": {
        "encoding": "inplace",
        "label": "contract ERC20Burnable",
        "numberOfBytes": "20"
      },
      "t_enum(StatusPreWithdraw)5417": {
        "encoding": "inplace",
        "label": "enum FARM.StatusPreWithdraw",
        "numberOfBytes": "1"
      },
      "t_mapping(t_address,t_array(t_struct(PreWithdrawUser)5414_storage)dyn_storage)": {
        "encoding": "mapping",
        "key": "t_address",
        "label": "mapping(address => struct FARM.PreWithdrawUser[])",
        "numberOfBytes": "32",
        "value": "t_array(t_struct(PreWithdrawUser)5414_storage)dyn_storage"
      },
      "t_mapping(t_address,t_struct(ClaimUser)5337_storage)": {
        "encoding": "mapping",
        "key": "t_address",
        "label": "mapping(address => struct FARM.ClaimUser)",
        "numberOfBytes": "32",
        "value": "t_struct(ClaimUser)5337_storage"
      },
      "t_mapping(t_address,t_uint256)": {
        "encoding": "mapping",
        "key": "t_address",
        "label": "mapping(address => uint256)",
        "numberOfBytes": "32",
        "value": "t_uint256"
      },
      "t_mapping(t_uint256,t_bool)": {
        "encoding": "mapping",
        "key": "t_uint256",
        "label": "mapping(uint256 => bool)",
        "numberOfBytes": "32",
        "value": "t_bool"
      },
      "t_mapping(t_uint256,t_struct(PreWithdrawUser)5414_storage)": {
        "encoding": "mapping",
        "key": "t_uint256",
        "label": "mapping(uint256 => struct FARM.PreWithdrawUser)",
        "numberOfBytes": "32",
        "value": "t_struct(PreWithdrawUser)5414_storage"
      },
      "t_mapping(t_uint256,t_uint256)": {
        "encoding": "mapping",
        "key": "t_uint256",
        "label": "mapping(uint256 => uint256)",
        "numberOfBytes": "32",
        "value": "t_uint256"
      },
      "t_struct(ClaimUser)5337_storage": {
        "encoding": "inplace",
        "label": "struct FARM.ClaimUser",
        "members": [
          {
            "astId": 5336,
            "contract": "contracts/FARM.sol:FARM",
            "label": "alreadyClaim",
            "offset": 0,
            "slot": "0",
            "type": "t_mapping(t_uint256,t_bool)"
          }
        ],
        "numberOfBytes": "32"
      },
      "t_struct(PreWithdrawUser)5414_storage": {
        "encoding": "inplace",
        "label": "struct FARM.PreWithdrawUser",
        "members": [
          {
            "astId": 5400,
            "contract": "contracts/FARM.sol:FARM",
            "label": "id",
            "offset": 0,
            "slot": "0",
            "type": "t_uint256"
          },
          {
            "astId": 5402,
            "contract": "contracts/FARM.sol:FARM",
            "label": "user",
            "offset": 0,
            "slot": "1",
            "type": "t_address"
          },
          {
            "astId": 5404,
            "contract": "contracts/FARM.sol:FARM",
            "label": "amount",
            "offset": 0,
            "slot": "2",
            "type": "t_uint256"
          },
          {
            "astId": 5406,
            "contract": "contracts/FARM.sol:FARM",
            "label": "timeStart",
            "offset": 0,
            "slot": "3",
            "type": "t_uint256"
          },
          {
            "astId": 5408,
            "contract": "contracts/FARM.sol:FARM",
            "label": "timeEnd",
            "offset": 0,
            "slot": "4",
            "type": "t_uint256"
          },
          {
            "astId": 5410,
            "contract": "contracts/FARM.sol:FARM",
            "label": "percent",
            "offset": 0,
            "slot": "5",
            "type": "t_uint256"
          },
          {
            "astId": 5413,
            "contract": "contracts/FARM.sol:FARM",
            "label": "status",
            "offset": 0,
            "slot": "6",
            "type": "t_enum(StatusPreWithdraw)5417"
          }
        ],
        "numberOfBytes": "224"
      },
      "t_uint256": {
        "encoding": "inplace",
        "label": "uint256",
        "numberOfBytes": "32"
      }
    }
  }
}