{
  "address": "0x849921808285Eb9d8CD79F5eD63f653468Ca2298",
  "abi": [
    {
      "inputs": [
        {
          "internalType": "uint256[]",
          "name": "_amountsToFee",
          "type": "uint256[]"
        },
        {
          "internalType": "uint256[]",
          "name": "_percents",
          "type": "uint256[]"
        },
        {
          "internalType": "address",
          "name": "_feeReceiver",
          "type": "address"
        },
        {
          "internalType": "address",
          "name": "_pool",
          "type": "address"
        },
        {
          "internalType": "uint256",
          "name": "supply",
          "type": "uint256"
        }
      ],
      "stateMutability": "nonpayable",
      "type": "constructor"
    },
    {
      "anonymous": false,
      "inputs": [
        {
          "indexed": true,
          "internalType": "address",
          "name": "owner",
          "type": "address"
        },
        {
          "indexed": true,
          "internalType": "address",
          "name": "spender",
          "type": "address"
        },
        {
          "indexed": false,
          "internalType": "uint256",
          "name": "value",
          "type": "uint256"
        }
      ],
      "name": "Approval",
      "type": "event"
    },
    {
      "anonymous": false,
      "inputs": [
        {
          "indexed": false,
          "internalType": "address",
          "name": "account",
          "type": "address"
        }
      ],
      "name": "Paused",
      "type": "event"
    },
    {
      "anonymous": false,
      "inputs": [
        {
          "indexed": true,
          "internalType": "bytes32",
          "name": "role",
          "type": "bytes32"
        },
        {
          "indexed": true,
          "internalType": "bytes32",
          "name": "previousAdminRole",
          "type": "bytes32"
        },
        {
          "indexed": true,
          "internalType": "bytes32",
          "name": "newAdminRole",
          "type": "bytes32"
        }
      ],
      "name": "RoleAdminChanged",
      "type": "event"
    },
    {
      "anonymous": false,
      "inputs": [
        {
          "indexed": true,
          "internalType": "bytes32",
          "name": "role",
          "type": "bytes32"
        },
        {
          "indexed": true,
          "internalType": "address",
          "name": "account",
          "type": "address"
        },
        {
          "indexed": true,
          "internalType": "address",
          "name": "sender",
          "type": "address"
        }
      ],
      "name": "RoleGranted",
      "type": "event"
    },
    {
      "anonymous": false,
      "inputs": [
        {
          "indexed": true,
          "internalType": "bytes32",
          "name": "role",
          "type": "bytes32"
        },
        {
          "indexed": true,
          "internalType": "address",
          "name": "account",
          "type": "address"
        },
        {
          "indexed": true,
          "internalType": "address",
          "name": "sender",
          "type": "address"
        }
      ],
      "name": "RoleRevoked",
      "type": "event"
    },
    {
      "anonymous": false,
      "inputs": [
        {
          "indexed": true,
          "internalType": "address",
          "name": "from",
          "type": "address"
        },
        {
          "indexed": true,
          "internalType": "address",
          "name": "to",
          "type": "address"
        },
        {
          "indexed": false,
          "internalType": "uint256",
          "name": "value",
          "type": "uint256"
        }
      ],
      "name": "Transfer",
      "type": "event"
    },
    {
      "anonymous": false,
      "inputs": [
        {
          "indexed": false,
          "internalType": "address",
          "name": "account",
          "type": "address"
        }
      ],
      "name": "Unpaused",
      "type": "event"
    },
    {
      "inputs": [],
      "name": "DEFAULT_ADMIN_ROLE",
      "outputs": [
        {
          "internalType": "bytes32",
          "name": "",
          "type": "bytes32"
        }
      ],
      "stateMutability": "view",
      "type": "function"
    },
    {
      "inputs": [],
      "name": "MINTER_ROLE",
      "outputs": [
        {
          "internalType": "bytes32",
          "name": "",
          "type": "bytes32"
        }
      ],
      "stateMutability": "view",
      "type": "function"
    },
    {
      "inputs": [],
      "name": "PAUSER_ROLE",
      "outputs": [
        {
          "internalType": "bytes32",
          "name": "",
          "type": "bytes32"
        }
      ],
      "stateMutability": "view",
      "type": "function"
    },
    {
      "inputs": [
        {
          "internalType": "address",
          "name": "owner",
          "type": "address"
        },
        {
          "internalType": "address",
          "name": "spender",
          "type": "address"
        }
      ],
      "name": "allowance",
      "outputs": [
        {
          "internalType": "uint256",
          "name": "",
          "type": "uint256"
        }
      ],
      "stateMutability": "view",
      "type": "function"
    },
    {
      "inputs": [
        {
          "internalType": "uint256",
          "name": "",
          "type": "uint256"
        }
      ],
      "name": "amountsToFee",
      "outputs": [
        {
          "internalType": "uint256",
          "name": "",
          "type": "uint256"
        }
      ],
      "stateMutability": "view",
      "type": "function"
    },
    {
      "inputs": [
        {
          "internalType": "address",
          "name": "spender",
          "type": "address"
        },
        {
          "internalType": "uint256",
          "name": "amount",
          "type": "uint256"
        }
      ],
      "name": "approve",
      "outputs": [
        {
          "internalType": "bool",
          "name": "",
          "type": "bool"
        }
      ],
      "stateMutability": "nonpayable",
      "type": "function"
    },
    {
      "inputs": [
        {
          "internalType": "address",
          "name": "account",
          "type": "address"
        }
      ],
      "name": "balanceOf",
      "outputs": [
        {
          "internalType": "uint256",
          "name": "",
          "type": "uint256"
        }
      ],
      "stateMutability": "view",
      "type": "function"
    },
    {
      "inputs": [
        {
          "internalType": "uint256",
          "name": "amount",
          "type": "uint256"
        }
      ],
      "name": "burn",
      "outputs": [],
      "stateMutability": "nonpayable",
      "type": "function"
    },
    {
      "inputs": [
        {
          "internalType": "address",
          "name": "account",
          "type": "address"
        },
        {
          "internalType": "uint256",
          "name": "amount",
          "type": "uint256"
        }
      ],
      "name": "burnFrom",
      "outputs": [],
      "stateMutability": "nonpayable",
      "type": "function"
    },
    {
      "inputs": [],
      "name": "decimals",
      "outputs": [
        {
          "internalType": "uint8",
          "name": "",
          "type": "uint8"
        }
      ],
      "stateMutability": "view",
      "type": "function"
    },
    {
      "inputs": [
        {
          "internalType": "address",
          "name": "spender",
          "type": "address"
        },
        {
          "internalType": "uint256",
          "name": "subtractedValue",
          "type": "uint256"
        }
      ],
      "name": "decreaseAllowance",
      "outputs": [
        {
          "internalType": "bool",
          "name": "",
          "type": "bool"
        }
      ],
      "stateMutability": "nonpayable",
      "type": "function"
    },
    {
      "inputs": [
        {
          "internalType": "address",
          "name": "",
          "type": "address"
        }
      ],
      "name": "excludeFeeWallets",
      "outputs": [
        {
          "internalType": "bool",
          "name": "",
          "type": "bool"
        }
      ],
      "stateMutability": "view",
      "type": "function"
    },
    {
      "inputs": [],
      "name": "getAmountsToFee",
      "outputs": [
        {
          "internalType": "uint256[]",
          "name": "",
          "type": "uint256[]"
        }
      ],
      "stateMutability": "view",
      "type": "function"
    },
    {
      "inputs": [],
      "name": "getPercents",
      "outputs": [
        {
          "internalType": "uint256[]",
          "name": "",
          "type": "uint256[]"
        }
      ],
      "stateMutability": "view",
      "type": "function"
    },
    {
      "inputs": [
        {
          "internalType": "bytes32",
          "name": "role",
          "type": "bytes32"
        }
      ],
      "name": "getRoleAdmin",
      "outputs": [
        {
          "internalType": "bytes32",
          "name": "",
          "type": "bytes32"
        }
      ],
      "stateMutability": "view",
      "type": "function"
    },
    {
      "inputs": [
        {
          "internalType": "bytes32",
          "name": "role",
          "type": "bytes32"
        },
        {
          "internalType": "uint256",
          "name": "index",
          "type": "uint256"
        }
      ],
      "name": "getRoleMember",
      "outputs": [
        {
          "internalType": "address",
          "name": "",
          "type": "address"
        }
      ],
      "stateMutability": "view",
      "type": "function"
    },
    {
      "inputs": [
        {
          "internalType": "bytes32",
          "name": "role",
          "type": "bytes32"
        }
      ],
      "name": "getRoleMemberCount",
      "outputs": [
        {
          "internalType": "uint256",
          "name": "",
          "type": "uint256"
        }
      ],
      "stateMutability": "view",
      "type": "function"
    },
    {
      "inputs": [
        {
          "internalType": "bytes32",
          "name": "role",
          "type": "bytes32"
        },
        {
          "internalType": "address",
          "name": "account",
          "type": "address"
        }
      ],
      "name": "grantRole",
      "outputs": [],
      "stateMutability": "nonpayable",
      "type": "function"
    },
    {
      "inputs": [
        {
          "internalType": "bytes32",
          "name": "role",
          "type": "bytes32"
        },
        {
          "internalType": "address",
          "name": "account",
          "type": "address"
        }
      ],
      "name": "hasRole",
      "outputs": [
        {
          "internalType": "bool",
          "name": "",
          "type": "bool"
        }
      ],
      "stateMutability": "view",
      "type": "function"
    },
    {
      "inputs": [
        {
          "internalType": "uint256",
          "name": "_amount",
          "type": "uint256"
        }
      ],
      "name": "howMuch",
      "outputs": [
        {
          "internalType": "uint256",
          "name": "_newAmount",
          "type": "uint256"
        }
      ],
      "stateMutability": "view",
      "type": "function"
    },
    {
      "inputs": [
        {
          "internalType": "address",
          "name": "spender",
          "type": "address"
        },
        {
          "internalType": "uint256",
          "name": "addedValue",
          "type": "uint256"
        }
      ],
      "name": "increaseAllowance",
      "outputs": [
        {
          "internalType": "bool",
          "name": "",
          "type": "bool"
        }
      ],
      "stateMutability": "nonpayable",
      "type": "function"
    },
    {
      "inputs": [
        {
          "internalType": "address",
          "name": "to",
          "type": "address"
        },
        {
          "internalType": "uint256",
          "name": "amount",
          "type": "uint256"
        }
      ],
      "name": "mint",
      "outputs": [],
      "stateMutability": "nonpayable",
      "type": "function"
    },
    {
      "inputs": [],
      "name": "name",
      "outputs": [
        {
          "internalType": "string",
          "name": "",
          "type": "string"
        }
      ],
      "stateMutability": "view",
      "type": "function"
    },
    {
      "inputs": [],
      "name": "pause",
      "outputs": [],
      "stateMutability": "nonpayable",
      "type": "function"
    },
    {
      "inputs": [],
      "name": "paused",
      "outputs": [
        {
          "internalType": "bool",
          "name": "",
          "type": "bool"
        }
      ],
      "stateMutability": "view",
      "type": "function"
    },
    {
      "inputs": [
        {
          "internalType": "uint256",
          "name": "",
          "type": "uint256"
        }
      ],
      "name": "percents",
      "outputs": [
        {
          "internalType": "uint256",
          "name": "",
          "type": "uint256"
        }
      ],
      "stateMutability": "view",
      "type": "function"
    },
    {
      "inputs": [
        {
          "internalType": "address",
          "name": "",
          "type": "address"
        }
      ],
      "name": "poolFeeWallets",
      "outputs": [
        {
          "internalType": "bool",
          "name": "",
          "type": "bool"
        }
      ],
      "stateMutability": "view",
      "type": "function"
    },
    {
      "inputs": [
        {
          "internalType": "bytes32",
          "name": "role",
          "type": "bytes32"
        },
        {
          "internalType": "address",
          "name": "account",
          "type": "address"
        }
      ],
      "name": "renounceRole",
      "outputs": [],
      "stateMutability": "nonpayable",
      "type": "function"
    },
    {
      "inputs": [
        {
          "internalType": "bytes32",
          "name": "role",
          "type": "bytes32"
        },
        {
          "internalType": "address",
          "name": "account",
          "type": "address"
        }
      ],
      "name": "revokeRole",
      "outputs": [],
      "stateMutability": "nonpayable",
      "type": "function"
    },
    {
      "inputs": [],
      "name": "seeData",
      "outputs": [
        {
          "internalType": "uint256[]",
          "name": "data",
          "type": "uint256[]"
        }
      ],
      "stateMutability": "view",
      "type": "function"
    },
    {
      "inputs": [
        {
          "internalType": "address",
          "name": "_pool",
          "type": "address"
        }
      ],
      "name": "seeIfWalletPoolIsFee",
      "outputs": [
        {
          "internalType": "bool",
          "name": "",
          "type": "bool"
        }
      ],
      "stateMutability": "view",
      "type": "function"
    },
    {
      "inputs": [
        {
          "internalType": "address[]",
          "name": "_excludeFeeWallets",
          "type": "address[]"
        },
        {
          "internalType": "bool",
          "name": "access",
          "type": "bool"
        }
      ],
      "name": "setExcludeFeeWallets",
      "outputs": [],
      "stateMutability": "nonpayable",
      "type": "function"
    },
    {
      "inputs": [
        {
          "internalType": "address",
          "name": "_feeReceiver",
          "type": "address"
        }
      ],
      "name": "setFeeReceiver",
      "outputs": [],
      "stateMutability": "nonpayable",
      "type": "function"
    },
    {
      "inputs": [
        {
          "internalType": "address[]",
          "name": "_poolFeeWallets",
          "type": "address[]"
        },
        {
          "internalType": "bool",
          "name": "access",
          "type": "bool"
        }
      ],
      "name": "setPoolFeeWallets",
      "outputs": [],
      "stateMutability": "nonpayable",
      "type": "function"
    },
    {
      "inputs": [
        {
          "internalType": "uint256[]",
          "name": "_amountsToFee",
          "type": "uint256[]"
        },
        {
          "internalType": "uint256[]",
          "name": "_percents",
          "type": "uint256[]"
        }
      ],
      "name": "setTaxFee",
      "outputs": [],
      "stateMutability": "nonpayable",
      "type": "function"
    },
    {
      "inputs": [
        {
          "internalType": "bytes4",
          "name": "interfaceId",
          "type": "bytes4"
        }
      ],
      "name": "supportsInterface",
      "outputs": [
        {
          "internalType": "bool",
          "name": "",
          "type": "bool"
        }
      ],
      "stateMutability": "view",
      "type": "function"
    },
    {
      "inputs": [],
      "name": "symbol",
      "outputs": [
        {
          "internalType": "string",
          "name": "",
          "type": "string"
        }
      ],
      "stateMutability": "view",
      "type": "function"
    },
    {
      "inputs": [],
      "name": "totalSupply",
      "outputs": [
        {
          "internalType": "uint256",
          "name": "",
          "type": "uint256"
        }
      ],
      "stateMutability": "view",
      "type": "function"
    },
    {
      "inputs": [
        {
          "internalType": "address",
          "name": "recipient",
          "type": "address"
        },
        {
          "internalType": "uint256",
          "name": "amount",
          "type": "uint256"
        }
      ],
      "name": "transfer",
      "outputs": [
        {
          "internalType": "bool",
          "name": "",
          "type": "bool"
        }
      ],
      "stateMutability": "nonpayable",
      "type": "function"
    },
    {
      "inputs": [
        {
          "internalType": "address",
          "name": "sender",
          "type": "address"
        },
        {
          "internalType": "address",
          "name": "recipient",
          "type": "address"
        },
        {
          "internalType": "uint256",
          "name": "amount",
          "type": "uint256"
        }
      ],
      "name": "transferFrom",
      "outputs": [
        {
          "internalType": "bool",
          "name": "",
          "type": "bool"
        }
      ],
      "stateMutability": "nonpayable",
      "type": "function"
    },
    {
      "inputs": [],
      "name": "unpause",
      "outputs": [],
      "stateMutability": "nonpayable",
      "type": "function"
    }
  ],
  "transactionHash": "0x7bf75c862b0f9bb51aa5521b27ccca6c2ccc0c5294c2319105525f004e04a07f",
  "args": [
    [
      "0",
      "50000000000000000000000",
      "100000000000000000000000",
      "200000000000000000000000"
    ],
    [
      5,
      10,
      15,
      30
    ],
    "0x306CD783E2B00b5269e937F896D2eF94Bc6d0d79",
    "0x333068D06563a8DfDBF330A0e04A9d128e98bf5a",
    "2000000000000000000000000000"
  ],
  "solcInputHash": "4a93bb0e7f2ad554edd3bb4d2810e018",
  "bytecode": "0x60806040523480156200001157600080fd5b5060405162002bfd38038062002bfd8339810160408190526200003491620007ad565b6040518060400160405280600a81526020016923a5a420a72a27a5a2a760b11b8152506040518060400160405280600581526020016423a5a420a760d91b815250818181600590805190602001906200008f92919062000603565b508051620000a590600690602084019062000603565b50506007805460ff1916905550620000bf600033620001d0565b620000eb7f9f2df0fed2c77648de5860a4cc508cd0818c85b8b8a1ab4ceeef8d981c8956a633620001d0565b620001177f65d7a28e3265b37a6474929f336521b332c1681b933f6cb9f3376673440d862a33620001d0565b506200012590508562000213565b80516200013b9160089160209091019062000692565b50620001478462000213565b80516200015d9160099160209091019062000692565b50600a80546001600160a01b0319166001600160a01b038581169190911790915582166000908152600b60209081526040808320805460ff19908116600190811790925533808652600c909452919093208054909116909217909155620001c5908262000352565b505050505062000918565b620001e782826200044960201b62000e4c1760201c565b60008281526001602090815260409091206200020e91839062000e5662000459821b17901c565b505050565b60608160005b81518110156200034b5760005b6001835162000236919062000861565b8110156200033557826200024c82600162000846565b815181106200025f576200025f620008ec565b60200260200101518382815181106200027c576200027c620008ec565b602002602001015111156200032057826200029982600162000846565b81518110620002ac57620002ac620008ec565b6020026020010151838281518110620002c957620002c9620008ec565b6020026020010151848381518110620002e657620002e6620008ec565b6020026020010185846001620002fd919062000846565b81518110620003105762000310620008ec565b6020908102919091010191909152525b806200032c81620008b8565b91505062000226565b50806200034281620008b8565b91505062000219565b5092915050565b6001600160a01b038216620003ae5760405162461bcd60e51b815260206004820152601f60248201527f45524332303a206d696e7420746f20746865207a65726f20616464726573730060448201526064015b60405180910390fd5b620003bc6000838362000479565b8060046000828254620003d0919062000846565b90915550506001600160a01b03821660009081526002602052604081208054839290620003ff90849062000846565b90915550506040518181526001600160a01b038316906000907fddf252ad1be2c89b69c2b068fc378daa952ba7f163c4a11628f55a4df523b3ef9060200160405180910390a35050565b62000455828262000491565b5050565b600062000470836001600160a01b03841662000531565b90505b92915050565b6200020e8383836200058360201b62000e6b1760201c565b6000828152602081815260408083206001600160a01b038516845290915290205460ff1662000455576000828152602081815260408083206001600160a01b03851684529091529020805460ff19166001179055620004ed3390565b6001600160a01b0316816001600160a01b0316837f2f8788117e7eff1d82e926ec794901d17c78024a50270940304540a733656f0d60405160405180910390a45050565b60008181526001830160205260408120546200057a5750815460018181018455600084815260208082209093018490558454848252828601909352604090209190915562000473565b50600062000473565b6200059b8383836200020e60201b6200088d1760201c565b60075460ff16156200020e5760405162461bcd60e51b815260206004820152602a60248201527f45524332305061757361626c653a20746f6b656e207472616e736665722077686044820152691a5b19481c185d5cd95960b21b6064820152608401620003a5565b82805462000611906200087b565b90600052602060002090601f01602090048101928262000635576000855562000680565b82601f106200065057805160ff191683800117855562000680565b8280016001018555821562000680579182015b828111156200068057825182559160200191906001019062000663565b506200068e929150620006cf565b5090565b8280548282559060005260206000209081019282156200068057916020028201828111156200068057825182559160200191906001019062000663565b5b808211156200068e5760008155600101620006d0565b80516001600160a01b0381168114620006fe57600080fd5b919050565b600082601f8301126200071557600080fd5b815160206001600160401b038083111562000734576200073462000902565b8260051b604051601f19603f830116810181811084821117156200075c576200075c62000902565b604052848152838101925086840182880185018910156200077c57600080fd5b600092505b85831015620007a157805184529284019260019290920191840162000781565b50979650505050505050565b600080600080600060a08688031215620007c657600080fd5b85516001600160401b0380821115620007de57600080fd5b620007ec89838a0162000703565b965060208801519150808211156200080357600080fd5b50620008128882890162000703565b9450506200082360408701620006e6565b92506200083360608701620006e6565b9150608086015190509295509295909350565b600082198211156200085c576200085c620008d6565b500190565b600082821015620008765762000876620008d6565b500390565b600181811c908216806200089057607f821691505b60208210811415620008b257634e487b7160e01b600052602260045260246000fd5b50919050565b6000600019821415620008cf57620008cf620008d6565b5060010190565b634e487b7160e01b600052601160045260246000fd5b634e487b7160e01b600052603260045260246000fd5b634e487b7160e01b600052604160045260246000fd5b6122d580620009286000396000f3fe608060405234801561001057600080fd5b50600436106102535760003560e01c806370a0823111610146578063a9059cbb116100c3578063d547741f11610087578063d547741f14610557578063db07a6be14610364578063dd62ed3e1461056a578063e4f74057146105a3578063e63ab1e9146105b6578063efdcd974146105dd57600080fd5b8063a9059cbb146104cb578063abb5fc72146104de578063aced353e146104f1578063ca15c8731461051d578063d53913931461053057600080fd5b80639010d07c1161010a5780639010d07c1461046a57806391d148541461049557806395d89b41146104a8578063a217fddf146104b0578063a457c2d7146104b857600080fd5b806370a082311461040057806379cc679014610429578063836f13421461043c5780638456cb591461044f5780638db1342d1461045757600080fd5b80632b0e55a5116101d45780633f4ba83a116101985780633f4ba83a146103b457806340c10f19146103bc57806342966c68146103cf5780634bbf511e146103e25780635c975abb146103f557600080fd5b80632b0e55a5146103645780632f2ff15d1461036c578063313ce5671461037f57806336568abe1461038e57806339509351146103a157600080fd5b806318160ddd1161021b57806318160ddd146102e457806319263af1146102f657806319d1eaf31461031957806323b872dd1461032e578063248a9ca31461034157600080fd5b8063011b7c341461025857806301ffc9a71461027657806305eb5f1d1461029957806306fdde03146102bc578063095ea7b3146102d1575b600080fd5b6102606105f0565b60405161026d9190612072565b60405180910390f35b610289610284366004611fd3565b610648565b604051901515815260200161026d565b6102896102a7366004611dac565b600b6020526000908152604090205460ff1681565b6102c4610673565b60405161026d91906120b6565b6102896102df366004611e36565b6106fc565b6004545b60405190815260200161026d565b610289610304366004611dac565b600c6020526000908152604090205460ff1681565b61032c610327366004611f11565b610712565b005b61028961033c366004611dfa565b61075f565b6102e861034f366004611f75565b60009081526020819052604090206001015490565b610260610815565b61032c61037a366004611f8e565b61086b565b6040516012815260200161026d565b61032c61039c366004611f8e565b610892565b6102896103af366004611e36565b6108b4565b61032c6108eb565b61032c6103ca366004611e36565b610991565b61032c6103dd366004611f75565b610a34565b61032c6103f0366004611e60565b610a41565b60075460ff16610289565b6102e861040e366004611dac565b6001600160a01b031660009081526002602052604090205490565b61032c610437366004611e36565b610ab4565b6102e861044a366004611f75565b610b37565b61032c610b58565b6102e8610465366004611f75565b610bfc565b61047d610478366004611fb1565b610c0c565b6040516001600160a01b03909116815260200161026d565b6102896104a3366004611f8e565b610c2b565b6102c4610c54565b6102e8600081565b6102896104c6366004611e36565b610c63565b6102896104d9366004611e36565b610cfe565b61032c6104ec366004611e60565b610d0b565b6102896104ff366004611dac565b6001600160a01b03166000908152600b602052604090205460ff1690565b6102e861052b366004611f75565b610d7e565b6102e87f9f2df0fed2c77648de5860a4cc508cd0818c85b8b8a1ab4ceeef8d981c8956a681565b61032c610565366004611f8e565b610d95565b6102e8610578366004611dc7565b6001600160a01b03918216600090815260036020908152604080832093909416825291909152205490565b6102e86105b1366004611f75565b610d9f565b6102e87f65d7a28e3265b37a6474929f336521b332c1681b933f6cb9f3376673440d862a81565b61032c6105eb366004611dac565b610e1d565b6060600980548060200260200160405190810160405280929190818152602001828054801561063e57602002820191906000526020600020905b81548152602001906001019080831161062a575b5050505050905090565b60006001600160e01b03198216635a05180f60e01b148061066d575061066d82610ed1565b92915050565b606060058054610682906121f1565b80601f01602080910402602001604051908101604052809291908181526020018280546106ae906121f1565b801561063e5780601f106106d05761010080835404028352916020019161063e565b820191906000526020600020905b8154815290600101906020018083116106de57509395945050505050565b6000610709338484610f06565b50600192915050565b600061071e813361102b565b6107278361108f565b805161073b91600891602090910190611cae565b506107458261108f565b805161075991600991602090910190611cae565b50505050565b600061076c8484846111ab565b6001600160a01b0384166000908152600360209081526040808320338452909152902054828110156107f65760405162461bcd60e51b815260206004820152602860248201527f45524332303a207472616e7366657220616d6f756e74206578636565647320616044820152676c6c6f77616e636560c01b60648201526084015b60405180910390fd5b61080a85336108058685612197565b610f06565b506001949350505050565b6060600880548060200260200160405190810160405280929190818152602001828054801561063e576020028201919060005260206000209081548152602001906001019080831161062a575050505050905090565b6108758282611234565b600082815260016020526040902061088d9082610e56565b505050565b61089c828261125a565b600082815260016020526040902061088d90826112d4565b3360008181526003602090815260408083206001600160a01b0387168452909152812054909161070991859061080590869061213e565b6109157f65d7a28e3265b37a6474929f336521b332c1681b933f6cb9f3376673440d862a33610c2b565b6109875760405162461bcd60e51b815260206004820152603960248201527f45524332305072657365744d696e7465725061757365723a206d75737420686160448201527f76652070617573657220726f6c6520746f20756e70617573650000000000000060648201526084016107ed565b61098f6112e9565b565b6109bb7f9f2df0fed2c77648de5860a4cc508cd0818c85b8b8a1ab4ceeef8d981c8956a633610c2b565b610a265760405162461bcd60e51b815260206004820152603660248201527f45524332305072657365744d696e7465725061757365723a206d7573742068616044820152751d99481b5a5b9d195c881c9bdb19481d1bc81b5a5b9d60521b60648201526084016107ed565b610a30828261137c565b5050565b610a3e3382611467565b50565b6000610a4d813361102b565b60005b83518110156107595782600c6000868481518110610a7057610a70612273565b6020908102919091018101516001600160a01b03168252810191909152604001600020805460ff191691151591909117905580610aac8161222c565b915050610a50565b6000610ac08333610578565b905081811015610b1e5760405162461bcd60e51b8152602060048201526024808201527f45524332303a206275726e20616d6f756e74206578636565647320616c6c6f77604482015263616e636560e01b60648201526084016107ed565b610b2d83336108058585612197565b61088d8383611467565b60088181548110610b4757600080fd5b600091825260209091200154905081565b610b827f65d7a28e3265b37a6474929f336521b332c1681b933f6cb9f3376673440d862a33610c2b565b610bf45760405162461bcd60e51b815260206004820152603760248201527f45524332305072657365744d696e7465725061757365723a206d75737420686160448201527f76652070617573657220726f6c6520746f20706175736500000000000000000060648201526084016107ed565b61098f6115c2565b60098181548110610b4757600080fd5b6000828152600160205260408120610c24908361163d565b9392505050565b6000918252602082815260408084206001600160a01b0393909316845291905290205460ff1690565b606060068054610682906121f1565b3360009081526003602090815260408083206001600160a01b038616845290915281205482811015610ce55760405162461bcd60e51b815260206004820152602560248201527f45524332303a2064656372656173656420616c6c6f77616e63652062656c6f77604482015264207a65726f60d81b60648201526084016107ed565b610cf433856108058685612197565b5060019392505050565b60006107093384846111ab565b6000610d17813361102b565b60005b83518110156107595782600b6000868481518110610d3a57610d3a612273565b6020908102919091018101516001600160a01b03168252810191909152604001600020805460ff191691151591909117905580610d768161222c565b915050610d1a565b600081815260016020526040812061066d90611649565b61089c8282611653565b600080805b600854811015610e065760088181548110610dc157610dc1612273565b9060005260206000200154841115610df45760098181548110610de657610de6612273565b906000526020600020015491505b80610dfe8161222c565b915050610da4565b506064610e138285612178565b610c249190612156565b6000610e29813361102b565b50600a80546001600160a01b0319166001600160a01b0392909216919091179055565b610a308282611679565b6000610c24836001600160a01b0384166116fd565b60075460ff161561088d5760405162461bcd60e51b815260206004820152602a60248201527f45524332305061757361626c653a20746f6b656e207472616e736665722077686044820152691a5b19481c185d5cd95960b21b60648201526084016107ed565b60006001600160e01b03198216637965db0b60e01b148061066d57506301ffc9a760e01b6001600160e01b031983161461066d565b6001600160a01b038316610f685760405162461bcd60e51b8152602060048201526024808201527f45524332303a20617070726f76652066726f6d20746865207a65726f206164646044820152637265737360e01b60648201526084016107ed565b6001600160a01b038216610fc95760405162461bcd60e51b815260206004820152602260248201527f45524332303a20617070726f766520746f20746865207a65726f206164647265604482015261737360f01b60648201526084016107ed565b6001600160a01b0383811660008181526003602090815260408083209487168084529482529182902085905590518481527f8c5be1e5ebec7d5bd14f71427d1e84f3dd0314c0f7b2291e5b200ac8c7c3b92591015b60405180910390a3505050565b6110358282610c2b565b610a305761104d816001600160a01b0316601461174c565b61105883602061174c565b604051602001611069929190611ffd565b60408051601f198184030181529082905262461bcd60e51b82526107ed916004016120b6565b60608160005b81518110156111a45760005b600183516110af9190612197565b81101561119157826110c282600161213e565b815181106110d2576110d2612273565b60200260200101518382815181106110ec576110ec612273565b6020026020010151111561117f578261110682600161213e565b8151811061111657611116612273565b602002602001015183828151811061113057611130612273565b602002602001015184838151811061114a5761114a612273565b602002602001018584600161115f919061213e565b8151811061116f5761116f612273565b6020908102919091010191909152525b806111898161222c565b9150506110a1565b508061119c8161222c565b915050611095565b5092915050565b336000908152600c602052604090205460ff16156111ce5761088d8383836118e8565b6001600160a01b0382166000908152600b602052604090205460ff16156112295760006111fa82610d9f565b600a549091506112159085906001600160a01b0316836118e8565b61075984846112248486612197565b6118e8565b61088d8383836118e8565b600082815260208190526040902060010154611250813361102b565b61088d8383611679565b6001600160a01b03811633146112ca5760405162461bcd60e51b815260206004820152602f60248201527f416363657373436f6e74726f6c3a2063616e206f6e6c792072656e6f756e636560448201526e103937b632b9903337b91039b2b63360891b60648201526084016107ed565b610a308282611acb565b6000610c24836001600160a01b038416611b30565b60075460ff166113325760405162461bcd60e51b815260206004820152601460248201527314185d5cd8589b194e881b9bdd081c185d5cd95960621b60448201526064016107ed565b6007805460ff191690557f5db9ee0a495bf2e6ff9c91a7834c1ba4fdd244a5e8aa4e537bd38aeae4b073aa335b6040516001600160a01b03909116815260200160405180910390a1565b6001600160a01b0382166113d25760405162461bcd60e51b815260206004820152601f60248201527f45524332303a206d696e7420746f20746865207a65726f20616464726573730060448201526064016107ed565b6113de60008383611c1d565b80600460008282546113f0919061213e565b90915550506001600160a01b0382166000908152600260205260408120805483929061141d90849061213e565b90915550506040518181526001600160a01b038316906000907fddf252ad1be2c89b69c2b068fc378daa952ba7f163c4a11628f55a4df523b3ef9060200160405180910390a35050565b6001600160a01b0382166114c75760405162461bcd60e51b815260206004820152602160248201527f45524332303a206275726e2066726f6d20746865207a65726f206164647265736044820152607360f81b60648201526084016107ed565b6114d382600083611c1d565b6001600160a01b038216600090815260026020526040902054818110156115475760405162461bcd60e51b815260206004820152602260248201527f45524332303a206275726e20616d6f756e7420657863656564732062616c616e604482015261636560f01b60648201526084016107ed565b6115518282612197565b6001600160a01b0384166000908152600260205260408120919091556004805484929061157f908490612197565b90915550506040518281526000906001600160a01b038516907fddf252ad1be2c89b69c2b068fc378daa952ba7f163c4a11628f55a4df523b3ef9060200161101e565b60075460ff16156116085760405162461bcd60e51b815260206004820152601060248201526f14185d5cd8589b194e881c185d5cd95960821b60448201526064016107ed565b6007805460ff191660011790557f62e78cea01bee320cd4e420270b5ea74000d11b0c9f74754ebdbfc544b05a25861135f3390565b6000610c248383611c28565b600061066d825490565b60008281526020819052604090206001015461166f813361102b565b61088d8383611acb565b6116838282610c2b565b610a30576000828152602081815260408083206001600160a01b03851684529091529020805460ff191660011790556116b93390565b6001600160a01b0316816001600160a01b0316837f2f8788117e7eff1d82e926ec794901d17c78024a50270940304540a733656f0d60405160405180910390a45050565b60008181526001830160205260408120546117445750815460018181018455600084815260208082209093018490558454848252828601909352604090209190915561066d565b50600061066d565b6060600061175b836002612178565b61176690600261213e565b67ffffffffffffffff81111561177e5761177e612289565b6040519080825280601f01601f1916602001820160405280156117a8576020820181803683370190505b509050600360fc1b816000815181106117c3576117c3612273565b60200101906001600160f81b031916908160001a905350600f60fb1b816001815181106117f2576117f2612273565b60200101906001600160f81b031916908160001a9053506000611816846002612178565b61182190600161213e565b90505b6001811115611899576f181899199a1a9b1b9c1cb0b131b232b360811b85600f166010811061185557611855612273565b1a60f81b82828151811061186b5761186b612273565b60200101906001600160f81b031916908160001a90535060049490941c93611892816121da565b9050611824565b508315610c245760405162461bcd60e51b815260206004820181905260248201527f537472696e67733a20686578206c656e67746820696e73756666696369656e7460448201526064016107ed565b6001600160a01b03831661194c5760405162461bcd60e51b815260206004820152602560248201527f45524332303a207472616e736665722066726f6d20746865207a65726f206164604482015264647265737360d81b60648201526084016107ed565b6001600160a01b0382166119ae5760405162461bcd60e51b815260206004820152602360248201527f45524332303a207472616e7366657220746f20746865207a65726f206164647260448201526265737360e81b60648201526084016107ed565b6119b9838383611c1d565b6001600160a01b03831660009081526002602052604090205481811015611a315760405162461bcd60e51b815260206004820152602660248201527f45524332303a207472616e7366657220616d6f756e7420657863656564732062604482015265616c616e636560d01b60648201526084016107ed565b611a3b8282612197565b6001600160a01b038086166000908152600260205260408082209390935590851681529081208054849290611a7190849061213e565b92505081905550826001600160a01b0316846001600160a01b03167fddf252ad1be2c89b69c2b068fc378daa952ba7f163c4a11628f55a4df523b3ef84604051611abd91815260200190565b60405180910390a350505050565b611ad58282610c2b565b15610a30576000828152602081815260408083206001600160a01b0385168085529252808320805460ff1916905551339285917ff6391f5c32d9c69d2a47ea670b442974b53935d1edc7fd64eb21e047a839171b9190a45050565b60008181526001830160205260408120548015611c13576000611b54600183612197565b8554909150600090611b6890600190612197565b90506000866000018281548110611b8157611b81612273565b9060005260206000200154905080876000018481548110611ba457611ba4612273565b600091825260208083209091019290925582815260018901909152604090208490558654879080611bd757611bd761225d565b6001900381819060005260206000200160009055905586600101600087815260200190815260200160002060009055600194505050505061066d565b600091505061066d565b61088d838383610e6b565b81546000908210611c865760405162461bcd60e51b815260206004820152602260248201527f456e756d657261626c655365743a20696e646578206f7574206f6620626f756e604482015261647360f01b60648201526084016107ed565b826000018281548110611c9b57611c9b612273565b9060005260206000200154905092915050565b828054828255906000526020600020908101928215611ce9579160200282015b82811115611ce9578251825591602001919060010190611cce565b50611cf5929150611cf9565b5090565b5b80821115611cf55760008155600101611cfa565b80356001600160a01b0381168114611d2557600080fd5b919050565b600082601f830112611d3b57600080fd5b81356020611d50611d4b8361211a565b6120e9565b80838252828201915082860187848660051b8901011115611d7057600080fd5b60005b85811015611d8f57813584529284019290840190600101611d73565b5090979650505050505050565b80358015158114611d2557600080fd5b600060208284031215611dbe57600080fd5b610c2482611d0e565b60008060408385031215611dda57600080fd5b611de383611d0e565b9150611df160208401611d0e565b90509250929050565b600080600060608486031215611e0f57600080fd5b611e1884611d0e565b9250611e2660208501611d0e565b9150604084013590509250925092565b60008060408385031215611e4957600080fd5b611e5283611d0e565b946020939093013593505050565b60008060408385031215611e7357600080fd5b823567ffffffffffffffff811115611e8a57600080fd5b8301601f81018513611e9b57600080fd5b80356020611eab611d4b8361211a565b80838252828201915082850189848660051b8801011115611ecb57600080fd5b600095505b84861015611ef557611ee181611d0e565b835260019590950194918301918301611ed0565b509550611f059050868201611d9c565b93505050509250929050565b60008060408385031215611f2457600080fd5b823567ffffffffffffffff80821115611f3c57600080fd5b611f4886838701611d2a565b93506020850135915080821115611f5e57600080fd5b50611f6b85828601611d2a565b9150509250929050565b600060208284031215611f8757600080fd5b5035919050565b60008060408385031215611fa157600080fd5b82359150611df160208401611d0e565b60008060408385031215611fc457600080fd5b50508035926020909101359150565b600060208284031215611fe557600080fd5b81356001600160e01b031981168114610c2457600080fd5b7f416363657373436f6e74726f6c3a206163636f756e74200000000000000000008152600083516120358160178501602088016121ae565b7001034b99036b4b9b9b4b733903937b6329607d1b60179184019182015283516120668160288401602088016121ae565b01602801949350505050565b6020808252825182820181905260009190848201906040850190845b818110156120aa5783518352928401929184019160010161208e565b50909695505050505050565b60208152600082518060208401526120d58160408501602087016121ae565b601f01601f19169190910160400192915050565b604051601f8201601f1916810167ffffffffffffffff8111828210171561211257612112612289565b604052919050565b600067ffffffffffffffff82111561213457612134612289565b5060051b60200190565b6000821982111561215157612151612247565b500190565b60008261217357634e487b7160e01b600052601260045260246000fd5b500490565b600081600019048311821515161561219257612192612247565b500290565b6000828210156121a9576121a9612247565b500390565b60005b838110156121c95781810151838201526020016121b1565b838111156107595750506000910152565b6000816121e9576121e9612247565b506000190190565b600181811c9082168061220557607f821691505b6020821081141561222657634e487b7160e01b600052602260045260246000fd5b50919050565b600060001982141561224057612240612247565b5060010190565b634e487b7160e01b600052601160045260246000fd5b634e487b7160e01b600052603160045260246000fd5b634e487b7160e01b600052603260045260246000fd5b634e487b7160e01b600052604160045260246000fdfea26469706673582212202d391d9d32e0dc9949df1f089fa6ae5ec3ef6be9ea51b4a41218deffd694958364736f6c63430008070033",
  "devdoc": {
    "kind": "dev",
    "methods": {
      "allowance(address,address)": {
        "details": "See {IERC20-allowance}."
      },
      "approve(address,uint256)": {
        "details": "See {IERC20-approve}. Requirements: - `spender` cannot be the zero address."
      },
      "balanceOf(address)": {
        "details": "See {IERC20-balanceOf}."
      },
      "burn(uint256)": {
        "details": "Destroys `amount` tokens from the caller. See {ERC20-_burn}."
      },
      "burnFrom(address,uint256)": {
        "details": "Destroys `amount` tokens from `account`, deducting from the caller's allowance. See {ERC20-_burn} and {ERC20-allowance}. Requirements: - the caller must have allowance for ``accounts``'s tokens of at least `amount`."
      },
      "decimals()": {
        "details": "Returns the number of decimals used to get its user representation. For example, if `decimals` equals `2`, a balance of `505` tokens should be displayed to a user as `5,05` (`505 / 10 ** 2`). Tokens usually opt for a value of 18, imitating the relationship between Ether and Wei. This is the value {ERC20} uses, unless this function is overridden; NOTE: This information is only used for _display_ purposes: it in no way affects any of the arithmetic of the contract, including {IERC20-balanceOf} and {IERC20-transfer}."
      },
      "decreaseAllowance(address,uint256)": {
        "details": "Atomically decreases the allowance granted to `spender` by the caller. This is an alternative to {approve} that can be used as a mitigation for problems described in {IERC20-approve}. Emits an {Approval} event indicating the updated allowance. Requirements: - `spender` cannot be the zero address. - `spender` must have allowance for the caller of at least `subtractedValue`."
      },
      "getRoleAdmin(bytes32)": {
        "details": "Returns the admin role that controls `role`. See {grantRole} and {revokeRole}. To change a role's admin, use {_setRoleAdmin}."
      },
      "getRoleMember(bytes32,uint256)": {
        "details": "Returns one of the accounts that have `role`. `index` must be a value between 0 and {getRoleMemberCount}, non-inclusive. Role bearers are not sorted in any particular way, and their ordering may change at any point. WARNING: When using {getRoleMember} and {getRoleMemberCount}, make sure you perform all queries on the same block. See the following https://forum.openzeppelin.com/t/iterating-over-elements-on-enumerableset-in-openzeppelin-contracts/2296[forum post] for more information."
      },
      "getRoleMemberCount(bytes32)": {
        "details": "Returns the number of accounts that have `role`. Can be used together with {getRoleMember} to enumerate all bearers of a role."
      },
      "grantRole(bytes32,address)": {
        "details": "Overload {grantRole} to track enumerable memberships"
      },
      "hasRole(bytes32,address)": {
        "details": "Returns `true` if `account` has been granted `role`."
      },
      "increaseAllowance(address,uint256)": {
        "details": "Atomically increases the allowance granted to `spender` by the caller. This is an alternative to {approve} that can be used as a mitigation for problems described in {IERC20-approve}. Emits an {Approval} event indicating the updated allowance. Requirements: - `spender` cannot be the zero address."
      },
      "mint(address,uint256)": {
        "details": "Creates `amount` new tokens for `to`. See {ERC20-_mint}. Requirements: - the caller must have the `MINTER_ROLE`."
      },
      "name()": {
        "details": "Returns the name of the token."
      },
      "pause()": {
        "details": "Pauses all token transfers. See {ERC20Pausable} and {Pausable-_pause}. Requirements: - the caller must have the `PAUSER_ROLE`."
      },
      "paused()": {
        "details": "Returns true if the contract is paused, and false otherwise."
      },
      "renounceRole(bytes32,address)": {
        "details": "Overload {renounceRole} to track enumerable memberships"
      },
      "revokeRole(bytes32,address)": {
        "details": "Overload {revokeRole} to track enumerable memberships"
      },
      "supportsInterface(bytes4)": {
        "details": "See {IERC165-supportsInterface}."
      },
      "symbol()": {
        "details": "Returns the symbol of the token, usually a shorter version of the name."
      },
      "totalSupply()": {
        "details": "See {IERC20-totalSupply}."
      },
      "transfer(address,uint256)": {
        "details": "See {IERC20-transfer}. Requirements: - `recipient` cannot be the zero address. - the caller must have a balance of at least `amount`."
      },
      "transferFrom(address,address,uint256)": {
        "details": "See {IERC20-transferFrom}. Emits an {Approval} event indicating the updated allowance. This is not required by the EIP. See the note at the beginning of {ERC20}. Requirements: - `sender` and `recipient` cannot be the zero address. - `sender` must have a balance of at least `amount`. - the caller must have allowance for ``sender``'s tokens of at least `amount`."
      },
      "unpause()": {
        "details": "Unpauses all token transfers. See {ERC20Pausable} and {Pausable-_unpause}. Requirements: - the caller must have the `PAUSER_ROLE`."
      }
    },
    "title": "token",
    "version": 1
  },
  "userdoc": {
    "kind": "user",
    "methods": {},
    "version": 1
  },
  "storageLayout": {
    "storage": [
      {
        "astId": 1237,
        "contract": "contracts/GKHAN.sol:GKHAN",
        "label": "_roles",
        "offset": 0,
        "slot": "0",
        "type": "t_mapping(t_bytes32,t_struct(RoleData)1232_storage)"
      },
      {
        "astId": 1578,
        "contract": "contracts/GKHAN.sol:GKHAN",
        "label": "_roleMembers",
        "offset": 0,
        "slot": "1",
        "type": "t_mapping(t_bytes32,t_struct(AddressSet)4272_storage)"
      },
      {
        "astId": 1991,
        "contract": "contracts/GKHAN.sol:GKHAN",
        "label": "_balances",
        "offset": 0,
        "slot": "2",
        "type": "t_mapping(t_address,t_uint256)"
      },
      {
        "astId": 1997,
        "contract": "contracts/GKHAN.sol:GKHAN",
        "label": "_allowances",
        "offset": 0,
        "slot": "3",
        "type": "t_mapping(t_address,t_mapping(t_address,t_uint256))"
      },
      {
        "astId": 1999,
        "contract": "contracts/GKHAN.sol:GKHAN",
        "label": "_totalSupply",
        "offset": 0,
        "slot": "4",
        "type": "t_uint256"
      },
      {
        "astId": 2001,
        "contract": "contracts/GKHAN.sol:GKHAN",
        "label": "_name",
        "offset": 0,
        "slot": "5",
        "type": "t_string_storage"
      },
      {
        "astId": 2003,
        "contract": "contracts/GKHAN.sol:GKHAN",
        "label": "_symbol",
        "offset": 0,
        "slot": "6",
        "type": "t_string_storage"
      },
      {
        "astId": 1860,
        "contract": "contracts/GKHAN.sol:GKHAN",
        "label": "_paused",
        "offset": 0,
        "slot": "7",
        "type": "t_bool"
      },
      {
        "astId": 5430,
        "contract": "contracts/GKHAN.sol:GKHAN",
        "label": "amountsToFee",
        "offset": 0,
        "slot": "8",
        "type": "t_array(t_uint256)dyn_storage"
      },
      {
        "astId": 5433,
        "contract": "contracts/GKHAN.sol:GKHAN",
        "label": "percents",
        "offset": 0,
        "slot": "9",
        "type": "t_array(t_uint256)dyn_storage"
      },
      {
        "astId": 5435,
        "contract": "contracts/GKHAN.sol:GKHAN",
        "label": "feeReceiver",
        "offset": 0,
        "slot": "10",
        "type": "t_address"
      },
      {
        "astId": 5439,
        "contract": "contracts/GKHAN.sol:GKHAN",
        "label": "poolFeeWallets",
        "offset": 0,
        "slot": "11",
        "type": "t_mapping(t_address,t_bool)"
      },
      {
        "astId": 5443,
        "contract": "contracts/GKHAN.sol:GKHAN",
        "label": "excludeFeeWallets",
        "offset": 0,
        "slot": "12",
        "type": "t_mapping(t_address,t_bool)"
      }
    ],
    "types": {
      "t_address": {
        "encoding": "inplace",
        "label": "address",
        "numberOfBytes": "20"
      },
      "t_array(t_bytes32)dyn_storage": {
        "base": "t_bytes32",
        "encoding": "dynamic_array",
        "label": "bytes32[]",
        "numberOfBytes": "32"
      },
      "t_array(t_uint256)dyn_storage": {
        "base": "t_uint256",
        "encoding": "dynamic_array",
        "label": "uint256[]",
        "numberOfBytes": "32"
      },
      "t_bool": {
        "encoding": "inplace",
        "label": "bool",
        "numberOfBytes": "1"
      },
      "t_bytes32": {
        "encoding": "inplace",
        "label": "bytes32",
        "numberOfBytes": "32"
      },
      "t_mapping(t_address,t_bool)": {
        "encoding": "mapping",
        "key": "t_address",
        "label": "mapping(address => bool)",
        "numberOfBytes": "32",
        "value": "t_bool"
      },
      "t_mapping(t_address,t_mapping(t_address,t_uint256))": {
        "encoding": "mapping",
        "key": "t_address",
        "label": "mapping(address => mapping(address => uint256))",
        "numberOfBytes": "32",
        "value": "t_mapping(t_address,t_uint256)"
      },
      "t_mapping(t_address,t_uint256)": {
        "encoding": "mapping",
        "key": "t_address",
        "label": "mapping(address => uint256)",
        "numberOfBytes": "32",
        "value": "t_uint256"
      },
      "t_mapping(t_bytes32,t_struct(AddressSet)4272_storage)": {
        "encoding": "mapping",
        "key": "t_bytes32",
        "label": "mapping(bytes32 => struct EnumerableSet.AddressSet)",
        "numberOfBytes": "32",
        "value": "t_struct(AddressSet)4272_storage"
      },
      "t_mapping(t_bytes32,t_struct(RoleData)1232_storage)": {
        "encoding": "mapping",
        "key": "t_bytes32",
        "label": "mapping(bytes32 => struct AccessControl.RoleData)",
        "numberOfBytes": "32",
        "value": "t_struct(RoleData)1232_storage"
      },
      "t_mapping(t_bytes32,t_uint256)": {
        "encoding": "mapping",
        "key": "t_bytes32",
        "label": "mapping(bytes32 => uint256)",
        "numberOfBytes": "32",
        "value": "t_uint256"
      },
      "t_string_storage": {
        "encoding": "bytes",
        "label": "string",
        "numberOfBytes": "32"
      },
      "t_struct(AddressSet)4272_storage": {
        "encoding": "inplace",
        "label": "struct EnumerableSet.AddressSet",
        "members": [
          {
            "astId": 4271,
            "contract": "contracts/GKHAN.sol:GKHAN",
            "label": "_inner",
            "offset": 0,
            "slot": "0",
            "type": "t_struct(Set)3997_storage"
          }
        ],
        "numberOfBytes": "64"
      },
      "t_struct(RoleData)1232_storage": {
        "encoding": "inplace",
        "label": "struct AccessControl.RoleData",
        "members": [
          {
            "astId": 1229,
            "contract": "contracts/GKHAN.sol:GKHAN",
            "label": "members",
            "offset": 0,
            "slot": "0",
            "type": "t_mapping(t_address,t_bool)"
          },
          {
            "astId": 1231,
            "contract": "contracts/GKHAN.sol:GKHAN",
            "label": "adminRole",
            "offset": 0,
            "slot": "1",
            "type": "t_bytes32"
          }
        ],
        "numberOfBytes": "64"
      },
      "t_struct(Set)3997_storage": {
        "encoding": "inplace",
        "label": "struct EnumerableSet.Set",
        "members": [
          {
            "astId": 3992,
            "contract": "contracts/GKHAN.sol:GKHAN",
            "label": "_values",
            "offset": 0,
            "slot": "0",
            "type": "t_array(t_bytes32)dyn_storage"
          },
          {
            "astId": 3996,
            "contract": "contracts/GKHAN.sol:GKHAN",
            "label": "_indexes",
            "offset": 0,
            "slot": "1",
            "type": "t_mapping(t_bytes32,t_uint256)"
          }
        ],
        "numberOfBytes": "64"
      },
      "t_uint256": {
        "encoding": "inplace",
        "label": "uint256",
        "numberOfBytes": "32"
      }
    }
  }
}