{
  "address": "0x7C35FE7C2D4EaA84a5De7C653fF5D977d031Ed8d",
  "abi": [
    {
      "inputs": [
        {
          "internalType": "address",
          "name": "_rewardsToken",
          "type": "address"
        },
        {
          "internalType": "uint256",
          "name": "_stakingRewardsGenesis",
          "type": "uint256"
        }
      ],
      "stateMutability": "nonpayable",
      "type": "constructor"
    },
    {
      "anonymous": false,
      "inputs": [
        {
          "indexed": true,
          "internalType": "address",
          "name": "previousOwner",
          "type": "address"
        },
        {
          "indexed": true,
          "internalType": "address",
          "name": "newOwner",
          "type": "address"
        }
      ],
      "name": "OwnershipTransferred",
      "type": "event"
    },
    {
      "inputs": [
        {
          "internalType": "address",
          "name": "stakingToken",
          "type": "address"
        },
        {
          "internalType": "uint256",
          "name": "rewardAmount",
          "type": "uint256"
        },
        {
          "internalType": "uint256",
          "name": "rewardsDuration",
          "type": "uint256"
        },
        {
          "internalType": "uint256[2]",
          "name": "_timeInSeconds",
          "type": "uint256[2]"
        },
        {
          "internalType": "uint256[2]",
          "name": "_percents",
          "type": "uint256[2]"
        }
      ],
      "name": "deploy",
      "outputs": [],
      "stateMutability": "nonpayable",
      "type": "function"
    },
    {
      "inputs": [
        {
          "internalType": "address",
          "name": "stakingToken",
          "type": "address"
        }
      ],
      "name": "notifyRewardAmount",
      "outputs": [],
      "stateMutability": "nonpayable",
      "type": "function"
    },
    {
      "inputs": [],
      "name": "notifyRewardAmounts",
      "outputs": [],
      "stateMutability": "nonpayable",
      "type": "function"
    },
    {
      "inputs": [],
      "name": "owner",
      "outputs": [
        {
          "internalType": "address",
          "name": "",
          "type": "address"
        }
      ],
      "stateMutability": "view",
      "type": "function"
    },
    {
      "inputs": [
        {
          "internalType": "address",
          "name": "token",
          "type": "address"
        },
        {
          "internalType": "uint256",
          "name": "amount",
          "type": "uint256"
        }
      ],
      "name": "pullExtraTokens",
      "outputs": [],
      "stateMutability": "nonpayable",
      "type": "function"
    },
    {
      "inputs": [],
      "name": "renounceOwnership",
      "outputs": [],
      "stateMutability": "nonpayable",
      "type": "function"
    },
    {
      "inputs": [],
      "name": "rewardsToken",
      "outputs": [
        {
          "internalType": "address",
          "name": "",
          "type": "address"
        }
      ],
      "stateMutability": "view",
      "type": "function"
    },
    {
      "inputs": [],
      "name": "stakingRewardsGenesis",
      "outputs": [
        {
          "internalType": "uint256",
          "name": "",
          "type": "uint256"
        }
      ],
      "stateMutability": "view",
      "type": "function"
    },
    {
      "inputs": [
        {
          "internalType": "address",
          "name": "",
          "type": "address"
        }
      ],
      "name": "stakingRewardsInfoByStakingToken",
      "outputs": [
        {
          "internalType": "address",
          "name": "stakingRewards",
          "type": "address"
        },
        {
          "internalType": "uint256",
          "name": "rewardAmount",
          "type": "uint256"
        },
        {
          "internalType": "uint256",
          "name": "duration",
          "type": "uint256"
        },
        {
          "internalType": "uint256",
          "name": "timelock",
          "type": "uint256"
        }
      ],
      "stateMutability": "view",
      "type": "function"
    },
    {
      "inputs": [
        {
          "internalType": "uint256",
          "name": "",
          "type": "uint256"
        }
      ],
      "name": "stakingTokens",
      "outputs": [
        {
          "internalType": "address",
          "name": "",
          "type": "address"
        }
      ],
      "stateMutability": "view",
      "type": "function"
    },
    {
      "inputs": [
        {
          "internalType": "address",
          "name": "newOwner",
          "type": "address"
        }
      ],
      "name": "transferOwnership",
      "outputs": [],
      "stateMutability": "nonpayable",
      "type": "function"
    },
    {
      "inputs": [
        {
          "internalType": "address",
          "name": "stakingToken",
          "type": "address"
        },
        {
          "internalType": "uint256",
          "name": "rewardAmount",
          "type": "uint256"
        },
        {
          "internalType": "uint256",
          "name": "rewardsDuration",
          "type": "uint256"
        },
        {
          "internalType": "uint256[]",
          "name": "stakedTimeToClaim",
          "type": "uint256[]"
        },
        {
          "internalType": "uint256",
          "name": "timelock",
          "type": "uint256"
        }
      ],
      "name": "update",
      "outputs": [],
      "stateMutability": "nonpayable",
      "type": "function"
    }
  ],
  "transactionHash": "0x693d7f735327a6497e7d0be98f8e114683571076388e01288382341931397368",
  "args": [
    "0x9c999a7ed2A7f21472607070763b2BaFbc97A9d9",
    1713464613
  ],
  "solcInputHash": "4a93bb0e7f2ad554edd3bb4d2810e018",
  "bytecode": "0x608060405234801561001057600080fd5b506040516130d23803806130d283398101604081905261002f91610113565b600080546001600160a01b031916339081178255604051909182917f8be0079c531659141344cd1fd0a4f28419497f9722a3daafe3b4186f6b6457e0908290a350428110156100ea5760405162461bcd60e51b815260206004820152603460248201527f5374616b696e6752657761726473466163746f72793a3a636f6e73747275637460448201527f6f723a2067656e6573697320746f6f20736f6f6e000000000000000000000000606482015260840160405180910390fd5b600180546001600160a01b0319166001600160a01b03939093169290921790915560025561014d565b6000806040838503121561012657600080fd5b82516001600160a01b038116811461013d57600080fd5b6020939093015192949293505050565b612f768061015c6000396000f3fe60806040523480156200001157600080fd5b5060043610620000c35760003560e01c80639124d810116200007a5780639124d81014620001b7578063a0928c1114620001ce578063ae741d8d14620001e7578063d1af0c7d14620001f1578063d92f925c1462000205578063f2fde38b146200021c57600080fd5b8063344e5e3414620000c85780636cf8caf814620000fc578063715018a6146200016b5780637572719e146200017757806381e16298146200018e5780638da5cb5b14620001a5575b600080fd5b620000df620000d936600462000ce1565b62000233565b6040516001600160a01b0390911681526020015b60405180910390f35b620001406200010d36600462000b25565b600460208190526000918252604090912080546001820154600283015492909301546001600160a01b0390911692919084565b604080516001600160a01b0390951685526020850193909352918301526060820152608001620000f3565b620001756200025e565b005b620001756200018836600462000b4a565b620002de565b620001756200019f36600462000b25565b62000394565b6000546001600160a01b0316620000df565b62000175620001c836600462000bd7565b62000604565b620001d860025481565b604051908152602001620000f3565b62000175620006e1565b600154620000df906001600160a01b031681565b620001756200021636600462000b77565b620007b0565b620001756200022d36600462000b25565b62000925565b600381815481106200024457600080fd5b6000918252602090912001546001600160a01b0316905081565b6000546001600160a01b03163314620002945760405162461bcd60e51b81526004016200028b9062000d6e565b60405180910390fd5b600080546040516001600160a01b03909116907f8be0079c531659141344cd1fd0a4f28419497f9722a3daafe3b4186f6b6457e0908390a3600080546001600160a01b0319169055565b6000546001600160a01b031633146200030b5760405162461bcd60e51b81526004016200028b9062000d6e565b60405163a9059cbb60e01b8152336004820152602481018290526001600160a01b0383169063a9059cbb90604401602060405180830381600087803b1580156200035457600080fd5b505af115801562000369573d6000803e3d6000fd5b505050506040513d601f19601f820116820180604052508101906200038f919062000cbd565b505050565b600254421015620003f45760405162461bcd60e51b8152602060048201526034602482015260008051602062002f21833981519152604482015273617264416d6f756e743a206e6f7420726561647960601b60648201526084016200028b565b6001600160a01b0380821660009081526004602052604090208054909116620004755760405162461bcd60e51b8152602060048201526037602482015260008051602062002f2183398151915260448201527f617264416d6f756e743a206e6f74206465706c6f79656400000000000000000060648201526084016200028b565b600081600101541180156200048e575060008160020154115b156200060057600181810180546002840180546000938490559290559154835460405163a9059cbb60e01b81526001600160a01b0391821660048201526024810185905291169063a9059cbb90604401602060405180830381600087803b158015620004f957600080fd5b505af11580156200050e573d6000803e3d6000fd5b505050506040513d601f19601f8201168201806040525081019062000534919062000cbd565b620005975760405162461bcd60e51b815260206004820152603a602482015260008051602062002f2183398151915260448201527f617264416d6f756e743a207472616e73666572206661696c656400000000000060648201526084016200028b565b825460405163246132f960e01b815260048101849052602481018390526001600160a01b039091169063246132f990604401600060405180830381600087803b158015620005e457600080fd5b505af1158015620005f9573d6000803e3d6000fd5b5050505050505b5050565b6000546001600160a01b03163314620006315760405162461bcd60e51b81526004016200028b9062000d6e565b6001600160a01b0380861660009081526004602052604090208054909116620006b15760405162461bcd60e51b815260206004820152602b60248201527f5374616b696e6752657761726473466163746f72793a3a7570646174653a206e60448201526a1bdd0819195c1b1bde595960aa1b60648201526084016200028b565b60018101859055600281018490558251620006d6906003830190602086019062000a14565b506004015550505050565b600354620007555760405162461bcd60e51b8152602060048201526045602482015260008051602062002f2183398151915260448201527f617264416d6f756e74733a2063616c6c6564206265666f726520616e79206465606482015264706c6f797360d81b608482015260a4016200028b565b60005b600354811015620007ad5762000798600382815481106200077d576200077d62000e01565b6000918252602090912001546001600160a01b031662000394565b80620007a48162000dd7565b91505062000758565b50565b6000546001600160a01b03163314620007dd5760405162461bcd60e51b81526004016200028b9062000d6e565b6001600160a01b038086166000908152600460205260409020805490911615620008625760405162461bcd60e51b815260206004820152602f60248201527f5374616b696e6752657761726473466163746f72793a3a6465706c6f793a206160448201526e1b1c9958591e4819195c1b1bde5959608a1b60648201526084016200028b565b60015460405130916001600160a01b031690889086908690620008859062000a64565b6200089595949392919062000d26565b604051809103906000f080158015620008b2573d6000803e3d6000fd5b5081546001600160a01b039182166001600160a01b03199182161783556001808401979097556002909201949094556003805495860181556000527fc2575a0e9e593c00f959f8c92f12db2869c3395a3b0502d05e2516446f71f85b909401805495909316949093169390931790555050565b6000546001600160a01b03163314620009525760405162461bcd60e51b81526004016200028b9062000d6e565b6001600160a01b038116620009b95760405162461bcd60e51b815260206004820152602660248201527f4f776e61626c653a206e6577206f776e657220697320746865207a65726f206160448201526564647265737360d01b60648201526084016200028b565b600080546040516001600160a01b03808516939216917f8be0079c531659141344cd1fd0a4f28419497f9722a3daafe3b4186f6b6457e091a3600080546001600160a01b0319166001600160a01b0392909216919091179055565b82805482825590600052602060002090810192821562000a52579160200282015b8281111562000a5257825182559160200191906001019062000a35565b5062000a6092915062000a72565b5090565b6120f38062000e2e83390190565b5b8082111562000a60576000815560010162000a73565b80356001600160a01b038116811462000aa157600080fd5b919050565b600082601f83011262000ab857600080fd5b6040516040810181811067ffffffffffffffff8211171562000ade5762000ade62000e17565b806040525080838560408601111562000af657600080fd5b60005b600281101562000b1a57813583526020928301929091019060010162000af9565b509195945050505050565b60006020828403121562000b3857600080fd5b62000b438262000a89565b9392505050565b6000806040838503121562000b5e57600080fd5b62000b698362000a89565b946020939093013593505050565b600080600080600060e0868803121562000b9057600080fd5b62000b9b8662000a89565b9450602086013593506040860135925062000bba876060880162000aa6565b915062000bcb8760a0880162000aa6565b90509295509295909350565b600080600080600060a0868803121562000bf057600080fd5b62000bfb8662000a89565b9450602080870135945060408701359350606087013567ffffffffffffffff8082111562000c2857600080fd5b818901915089601f83011262000c3d57600080fd5b81358181111562000c525762000c5262000e17565b8060051b915062000c6584830162000da3565b8181528481019084860184860187018e101562000c8157600080fd5b600095505b8386101562000ca657803583526001959095019491860191860162000c86565b50999c989b50969960800135979650505050505050565b60006020828403121562000cd057600080fd5b8151801515811462000b4357600080fd5b60006020828403121562000cf457600080fd5b5035919050565b8060005b600281101562000d2057815184526020938401939091019060010162000cff565b50505050565b6001600160a01b03868116825285811660208301528416604082015260e0810162000d55606083018562000cfb565b62000d6460a083018462000cfb565b9695505050505050565b6020808252818101527f4f776e61626c653a2063616c6c6572206973206e6f7420746865206f776e6572604082015260600190565b604051601f8201601f1916810167ffffffffffffffff8111828210171562000dcf5762000dcf62000e17565b604052919050565b600060001982141562000dfa57634e487b7160e01b600052601160045260246000fd5b5060010190565b634e487b7160e01b600052603260045260246000fd5b634e487b7160e01b600052604160045260246000fdfe60806040526000600455606460055560006008553480156200002057600080fd5b50604051620020f3380380620020f38339810160408190526200004391620003f5565b6001805562000052816200013d565b620000975760405162461bcd60e51b8152602060048201526011602482015270050657263656e7473206f7665722031303607c1b604482015260640160405180910390fd5b600280546001600160a01b038087166001600160a01b031992831617909255600380548684169083161790556000805492881692909116919091179055620000df8262000196565b620000ef906009906002620002d6565b50620000fb8162000196565b6200010b90600b906002620002d6565b5050600b546009546000908152600d602052604080822092909255600c54600a5482529190205550620004e692505050565b60006001815b60028110156200018f576064848260028110620001645762000164620004d0565b602002015111156200017a57600091506200018f565b8062000186816200049c565b91505062000143565b5092915050565b620001a062000319565b8160005b620001b26001600262000482565b8110156200018f5760005b6001620001cc83600262000482565b620001d8919062000482565b811015620002c05782620001ee82600162000467565b60028110620002015762000201620004d0565b60200201518382600281106200021b576200021b620004d0565b60200201511115620002ab57826200023582600162000467565b60028110620002485762000248620004d0565b6020020151838260028110620002625762000262620004d0565b60200201518483600281106200027c576200027c620004d0565b60200201856200028e85600162000467565b60028110620002a157620002a1620004d0565b6020020191909152525b80620002b7816200049c565b915050620001bd565b5080620002cd816200049c565b915050620001a4565b826002810192821562000307579160200282015b8281111562000307578251825591602001919060010190620002ea565b506200031592915062000337565b5090565b60405180604001604052806002906020820280368337509192915050565b5b8082111562000315576000815560010162000338565b80516001600160a01b03811681146200036657600080fd5b919050565b600082601f8301126200037d57600080fd5b604080519081016001600160401b0381118282101715620003ae57634e487b7160e01b600052604160045260246000fd5b8060405250808385604086011115620003c657600080fd5b60005b6002811015620003ea578151835260209283019290910190600101620003c9565b509195945050505050565b600080600080600060e086880312156200040e57600080fd5b62000419866200034e565b945062000429602087016200034e565b935062000439604087016200034e565b92506200044a87606088016200036b565b91506200045b8760a088016200036b565b90509295509295909350565b600082198211156200047d576200047d620004ba565b500190565b600082821015620004975762000497620004ba565b500390565b6000600019821415620004b357620004b3620004ba565b5060010190565b634e487b7160e01b600052601160045260246000fd5b634e487b7160e01b600052603260045260246000fd5b611bfd80620004f66000396000f3fe608060405234801561001057600080fd5b50600436106101ce5760003560e01c806374df08d711610104578063c10d3e79116100a2578063df136d6511610071578063df136d6514610446578063e824dd1c1461044f578063e9fad8ee1461025a578063ebe2b12b1461046f57600080fd5b8063c10d3e7914610402578063c8f33c9114610422578063cd3daf9d1461042b578063d1af0c7d1461043357600080fd5b80638b876347116100de5780638b876347146103a95780638db1342d146103c957806393aa4b38146103dc578063a694fc3a146103ef57600080fd5b806374df08d7146103755780637b0a47ee1461039857806380faa57d146103a157600080fd5b806334ed7804116101715780634d63457e1161014b5780634d63457e146102be5780636dfb5b77146102e157806370a082311461033957806372f702f31461036257600080fd5b806334ed7804146102785780633d18b9121461028b5780633fc6df6e1461029357600080fd5b806318160ddd116101ad57806318160ddd1461023f578063246132f9146102475780632d2a12c21461025c5780632e1a7d4d1461026557600080fd5b80628cc262146101d3578063025919c8146101f95780630700037d1461021f575b600080fd5b6101e66101e1366004611843565b610478565b6040519081526020015b60405180910390f35b61020c61020736600461185e565b6104f6565b6040516101f09796959493929190611a80565b6101e661022d366004611843565b600f6020526000908152604090205481565b6010546101e6565b61025a6102553660046118dc565b61055d565b005b6101e660085481565b61025a6102733660046118aa565b61080f565b6101e66102863660046118aa565b610bbd565b61025a610bd4565b6000546102a6906001600160a01b031681565b6040516001600160a01b0390911681526020016101f0565b6101e66102cc3660046118aa565b60009081526014602052604090206005015490565b61020c6102ef3660046118aa565b601460205260009081526040902080546001820154600283015460038401546004850154600586015460069096015494956001600160a01b03909416949293919290919060ff1687565b6101e6610347366004611843565b6001600160a01b031660009081526011602052604090205490565b6003546102a6906001600160a01b031681565b6101e66103833660046118aa565b60009081526014602052604090206002015490565b6101e660055481565b6101e6610cd5565b6101e66103b7366004611843565b600e6020526000908152604090205481565b6101e66103d73660046118aa565b610ce8565b61025a6103ea3660046118dc565b610cf8565b61025a6103fd3660046118aa565b6110a4565b6104156104103660046118aa565b611208565b6040516101f09190611a72565b6101e660065481565b6101e66112a7565b6002546102a6906001600160a01b031681565b6101e660075481565b61046261045d366004611843565b6112f3565b6040516101f091906119b8565b6101e660045481565b6001600160a01b0381166000908152600f6020908152604080832054600e9092528220546104f091906104ea90670de0b6b3a7640000906104e4906104c5906104bf6112a7565b906113e5565b6001600160a01b038816600090815260116020526040902054906113f8565b90611404565b90611410565b92915050565b6013602052816000526040600020818154811061051257600080fd5b600091825260209091206007909102018054600182015460028301546003840154600485015460058601546006909601549497506001600160a01b0390931695509093909260ff1687565b6000546001600160a01b031633146105cf5760405162461bcd60e51b815260206004820152602a60248201527f43616c6c6572206973206e6f742052657761726473446973747269627574696f6044820152691b8818dbdb9d1c9858dd60b21b60648201526084015b60405180910390fd5b60006105d96112a7565b6007556105e4610cd5565b6006556001600160a01b0381161561062b576105ff81610478565b6001600160a01b0382166000908152600f6020908152604080832093909355600754600e909152919020555b6004546106384284611410565b10156106865760405162461bcd60e51b815260206004820152601d60248201527f43616e6e6f7420726564756365206578697374696e6720706572696f6400000060448201526064016105c6565b60045442106106a1576106998383611404565b6005556106e0565b6004546000906106b190426113e5565b905060006106ca600554836113f890919063ffffffff16565b90506106da846104e48784611410565b60055550505b6002546040516370a0823160e01b81523060048201526000916001600160a01b0316906370a082319060240160206040518083038186803b15801561072457600080fd5b505afa158015610738573d6000803e3d6000fd5b505050506040513d601f19601f8201168201806040525081019061075c91906118c3565b90506107688184611404565b60055411156107b95760405162461bcd60e51b815260206004820152601860248201527f50726f76696465642072657761726420746f6f2068696768000000000000000060448201526064016105c6565b4260068190556107c99084611410565b60048190556040805186815260208101929092527f6c07ee05dcf262f13abf9d87b846ee789d2f90fe991d495acd7d7fc109ee1f5591015b60405180910390a150505050565b600260015414156108325760405162461bcd60e51b81526004016105c690611a3b565b6002600155336108406112a7565b60075561084b610cd5565b6006556001600160a01b038116156108925761086681610478565b6001600160a01b0382166000908152600f6020908152604080832093909355600754600e909152919020555b60008281526014602052604090206004015482904210156108eb5760405162461bcd60e51b815260206004820152601360248201527210d85b9b9bdd081dda5d1a191c985dc81e595d606a1b60448201526064016105c6565b6000818152601460205260409020600101546001600160a01b0316331461094c5760405162461bcd60e51b81526020600482015260156024820152742cb7ba9030b932903737ba103a34329037bbb732b960591b60448201526064016105c6565b60008181526014602052604081206006015460ff16600181111561097257610972611bb1565b146109bf5760405162461bcd60e51b815260206004820181905260248201527f5468697320707265576974686472617720697320616c726561647920646f6e6560448201526064016105c6565b600081815260146020526040902060020154610a115760405162461bcd60e51b8152602060048201526011602482015270043616e6e6f74207769746864726177203607c1b60448201526064016105c6565b60008381526014602052604081206005810154600290910154606491610a3691611b1e565b610a409190611afc565b600085815260146020526040902060020154601054919250610a6291906113e5565b601055600084815260146020908152604080832060020154338452601190925290912054610a8f916113e5565b60116000336001600160a01b03166001600160a01b0316815260200190815260200160002081905550610ae56040518060400160405280600b81526020016a139155d5c8105353d5539560aa1b8152508261141c565b600354610afc906001600160a01b03163383611465565b6003546000858152601460205260409020600201546001600160a01b03909116906342966c6890610b2e908490611b3d565b6040518263ffffffff1660e01b8152600401610b4c91815260200190565b600060405180830381600087803b158015610b6657600080fd5b505af1158015610b7a573d6000803e3d6000fd5b50506040518381523392507f7084f5476618d8e60b11ef0d7d3f06914655adb8793e28ff7f018d4c76d505d5915060200160405180910390a25050600180555050565b60098160028110610bcd57600080fd5b0154905081565b60026001541415610bf75760405162461bcd60e51b81526004016105c690611a3b565b600260015533610c056112a7565b600755610c10610cd5565b6006556001600160a01b03811615610c5757610c2b81610478565b6001600160a01b0382166000908152600f6020908152604080832093909355600754600e909152919020555b336000908152600f60205260409020548015610ccd57336000818152600f6020526040812055600254610c96916001600160a01b039091169083611465565b60405181815233907fe2403640ba68fed3a2f88b7557551d1993f84b99bb10ff833f0cf8db0c5e0486906020015b60405180910390a25b505060018055565b6000610ce3426004546114cd565b905090565b600b8160028110610bcd57600080fd5b33600090815260116020526040902054821115610d575760405162461bcd60e51b815260206004820152601f60248201527f5573657220646f65736e74206861766520656e6f7567746820616d6f756e740060448201526064016105c6565b600954811015610db55760405162461bcd60e51b815260206004820152602360248201527f54696d652073686f756c642062652067726561746572207468616e206d696e6960448201526236bab760e91b60648201526084016105c6565b600a54600090821115610dcb5750600c54610de9565b600a54600c54610ddc908490611b1e565b610de69190611afc565b90505b610e15816040518060400160405280600a8152602001691b995dd4195c98d95b9d60b21b8152506114e3565b60088054906000610e2583611b80565b90915550506002546040516323b872dd60e01b8152336004820152306024820152604481018590526001600160a01b03909116906323b872dd90606401602060405180830381600087803b158015610e7c57600080fd5b505af1158015610e90573d6000803e3d6000fd5b505050506040513d601f19601f82011682018060405250810190610eb49190611888565b5060006040518060e001604052806008548152602001336001600160a01b031681526020018581526020014281526020018442610ef19190611ae4565b815260208101849052604001600090526008546000908152601460209081526040918290208351815590830151600180830180546001600160a01b0319166001600160a01b0390931692909217909155918301516002820155606083015160038201556080830151600482015560a0830151600582015560c0830151600682018054949550859492939192909160ff19909116908381811115610f9657610f96611bb1565b0217905550503360009081526013602090815260408083208054600180820183559185529383902086516007909502019384559185015183830180546001600160a01b0319166001600160a01b039092169190911790558401516002830155606084015160038301556080840151600483015560a0840151600583015560c08401516006830180548695509192909160ff191690838181111561103b5761103b611bb1565b0217905550506008547ffd67150571d4bf6ce6c4af8285b1e02955965855c0109167889dbd1ddfcca14691503386426110748882611ae4565b604080519586526001600160a01b039094166020860152928401919091526060830152608082015260a001610801565b600260015414156110c75760405162461bcd60e51b81526004016105c690611a3b565b6002600155336110d56112a7565b6007556110e0610cd5565b6006556001600160a01b03811615611127576110fb81610478565b6001600160a01b0382166000908152600f6020908152604080832093909355600754600e909152919020555b600082116111685760405162461bcd60e51b815260206004820152600e60248201526d043616e6e6f74207374616b6520360941b60448201526064016105c6565b6010546111759083611410565b601055336000908152601160205260409020546111929083611410565b336000818152601160205260409020919091556003546111bf916001600160a01b03909116903085611528565b6002546111d6906001600160a01b03163384611465565b60405182815233907f9e71bc8eea02a63969f509818f2dafb9254532904319f9dbda79b67bd34a5f3d90602001610cc4565b6112106117d1565b600082815260146020908152604091829020825160e081018452815481526001808301546001600160a01b0316938201939093526002820154938101939093526003810154606084015260048101546080840152600581015460a08401526006810154909160c084019160ff169081111561128d5761128d611bb1565b600181111561129e5761129e611bb1565b90525092915050565b6000601054600014156112bb575060075490565b610ce36112ea6010546104e4670de0b6b3a76400006112e46005546112e46006546104bf610cd5565b906113f8565b60075490611410565b6001600160a01b0381166000908152601360209081526040808320805482518185028101850190935280835260609492939192909184015b828210156113da5760008481526020908190206040805160e08101825260078602909201805483526001808201546001600160a01b0316948401949094526002810154918301919091526003810154606083015260048101546080830152600581015460a083015260068101549192909160c084019160ff909116908111156113b6576113b6611bb1565b60018111156113c7576113c7611bb1565b815250508152602001906001019061132b565b505050509050919050565b60006113f18284611b3d565b9392505050565b60006113f18284611b1e565b60006113f18284611afc565b60006113f18284611ae4565b6114618282604051602401611432929190611a19565b60408051601f198184030181529190526020810180516001600160e01b03166309710a9d60e41b179052611566565b5050565b6040516001600160a01b0383166024820152604481018290526114c890849063a9059cbb60e01b906064015b60408051601f198184030181529190526020810180516001600160e01b03166001600160e01b031990931692909217909152611587565b505050565b60008183106114dc57816113f1565b5090919050565b61146182826040516024016114f9929190611acb565b60408051601f198184030181529190526020810180516001600160e01b0316630fa3f34560e01b179052611566565b6040516001600160a01b03808516602483015283166044820152606481018290526115609085906323b872dd60e01b90608401611491565b50505050565b80516a636f6e736f6c652e6c6f67602083016000808483855afa5050505050565b60006115dc826040518060400160405280602081526020017f5361666545524332303a206c6f772d6c6576656c2063616c6c206661696c6564815250856001600160a01b03166116599092919063ffffffff16565b8051909150156114c857808060200190518101906115fa9190611888565b6114c85760405162461bcd60e51b815260206004820152602a60248201527f5361666545524332303a204552433230206f7065726174696f6e20646964206e6044820152691bdd081cdd58d8d9595960b21b60648201526084016105c6565b60606116688484600085611670565b949350505050565b6060824710156116d15760405162461bcd60e51b815260206004820152602660248201527f416464726573733a20696e73756666696369656e742062616c616e636520666f6044820152651c8818d85b1b60d21b60648201526084016105c6565b843b61171f5760405162461bcd60e51b815260206004820152601d60248201527f416464726573733a2063616c6c20746f206e6f6e2d636f6e747261637400000060448201526064016105c6565b600080866001600160a01b0316858760405161173b919061199c565b60006040518083038185875af1925050503d8060008114611778576040519150601f19603f3d011682016040523d82523d6000602084013e61177d565b606091505b509150915061178d828286611798565b979650505050505050565b606083156117a75750816113f1565b8251156117b75782518084602001fd5b8160405162461bcd60e51b81526004016105c69190611a06565b6040518060e001604052806000815260200160006001600160a01b03168152602001600081526020016000815260200160008152602001600081526020016000600181111561182257611822611bb1565b905290565b80356001600160a01b038116811461183e57600080fd5b919050565b60006020828403121561185557600080fd5b6113f182611827565b6000806040838503121561187157600080fd5b61187a83611827565b946020939093013593505050565b60006020828403121561189a57600080fd5b815180151581146113f157600080fd5b6000602082840312156118bc57600080fd5b5035919050565b6000602082840312156118d557600080fd5b5051919050565b600080604083850312156118ef57600080fd5b50508035926020909101359150565b6002811061191c57634e487b7160e01b600052602160045260246000fd5b9052565b60008151808452611938816020860160208601611b54565b601f01601f19169290920160200192915050565b8051825260018060a01b03602082015116602083015260408101516040830152606081015160608301526080810151608083015260a081015160a083015260c08101516114c860c08401826118fe565b600082516119ae818460208701611b54565b9190910192915050565b6020808252825182820181905260009190848201906040850190845b818110156119fa576119e783855161194c565b9284019260e092909201916001016119d4565b50909695505050505050565b6020815260006113f16020830184611920565b604081526000611a2c6040830185611920565b90508260208301529392505050565b6020808252601f908201527f5265656e7472616e637947756172643a207265656e7472616e742063616c6c00604082015260600190565b60e081016104f0828461194c565b8781526001600160a01b038716602082015260408101869052606081018590526080810184905260a0810183905260e08101611abf60c08301846118fe565b98975050505050505050565b8281526040602082015260006116686040830184611920565b60008219821115611af757611af7611b9b565b500190565b600082611b1957634e487b7160e01b600052601260045260246000fd5b500490565b6000816000190483118215151615611b3857611b38611b9b565b500290565b600082821015611b4f57611b4f611b9b565b500390565b60005b83811015611b6f578181015183820152602001611b57565b838111156115605750506000910152565b6000600019821415611b9457611b94611b9b565b5060010190565b634e487b7160e01b600052601160045260246000fd5b634e487b7160e01b600052602160045260246000fdfea264697066735822122074c1ad81cef386ec3440208feeb784ca96ec7d54997b1dbb2c28b1f85d688f4664736f6c634300080700335374616b696e6752657761726473466163746f72793a3a6e6f74696679526577a26469706673582212207cc32968f0f5fbfb7fda31e411a29d0218a40b03284078db62ef93e673546fe164736f6c63430008070033",
  "devdoc": {
    "kind": "dev",
    "methods": {
      "owner()": {
        "details": "Returns the address of the current owner."
      },
      "renounceOwnership()": {
        "details": "Leaves the contract without owner. It will not be possible to call `onlyOwner` functions anymore. Can only be called by the current owner. NOTE: Renouncing ownership will leave the contract without an owner, thereby removing any functionality that is only available to the owner."
      },
      "transferOwnership(address)": {
        "details": "Transfers ownership of the contract to a new account (`newOwner`). Can only be called by the current owner."
      }
    },
    "version": 1
  },
  "userdoc": {
    "kind": "user",
    "methods": {},
    "version": 1
  },
  "storageLayout": {
    "storage": [
      {
        "astId": 1740,
        "contract": "contracts/StakingRewardsFactory.sol:StakingRewardsFactory",
        "label": "_owner",
        "offset": 0,
        "slot": "0",
        "type": "t_address"
      },
      {
        "astId": 8362,
        "contract": "contracts/StakingRewardsFactory.sol:StakingRewardsFactory",
        "label": "rewardsToken",
        "offset": 0,
        "slot": "1",
        "type": "t_address"
      },
      {
        "astId": 8364,
        "contract": "contracts/StakingRewardsFactory.sol:StakingRewardsFactory",
        "label": "stakingRewardsGenesis",
        "offset": 0,
        "slot": "2",
        "type": "t_uint256"
      },
      {
        "astId": 8367,
        "contract": "contracts/StakingRewardsFactory.sol:StakingRewardsFactory",
        "label": "stakingTokens",
        "offset": 0,
        "slot": "3",
        "type": "t_array(t_address)dyn_storage"
      },
      {
        "astId": 8384,
        "contract": "contracts/StakingRewardsFactory.sol:StakingRewardsFactory",
        "label": "stakingRewardsInfoByStakingToken",
        "offset": 0,
        "slot": "4",
        "type": "t_mapping(t_address,t_struct(StakingRewardsInfo)8379_storage)"
      }
    ],
    "types": {
      "t_address": {
        "encoding": "inplace",
        "label": "address",
        "numberOfBytes": "20"
      },
      "t_array(t_address)dyn_storage": {
        "base": "t_address",
        "encoding": "dynamic_array",
        "label": "address[]",
        "numberOfBytes": "32"
      },
      "t_array(t_uint256)dyn_storage": {
        "base": "t_uint256",
        "encoding": "dynamic_array",
        "label": "uint256[]",
        "numberOfBytes": "32"
      },
      "t_mapping(t_address,t_struct(StakingRewardsInfo)8379_storage)": {
        "encoding": "mapping",
        "key": "t_address",
        "label": "mapping(address => struct StakingRewardsFactory.StakingRewardsInfo)",
        "numberOfBytes": "32",
        "value": "t_struct(StakingRewardsInfo)8379_storage"
      },
      "t_struct(StakingRewardsInfo)8379_storage": {
        "encoding": "inplace",
        "label": "struct StakingRewardsFactory.StakingRewardsInfo",
        "members": [
          {
            "astId": 8369,
            "contract": "contracts/StakingRewardsFactory.sol:StakingRewardsFactory",
            "label": "stakingRewards",
            "offset": 0,
            "slot": "0",
            "type": "t_address"
          },
          {
            "astId": 8371,
            "contract": "contracts/StakingRewardsFactory.sol:StakingRewardsFactory",
            "label": "rewardAmount",
            "offset": 0,
            "slot": "1",
            "type": "t_uint256"
          },
          {
            "astId": 8373,
            "contract": "contracts/StakingRewardsFactory.sol:StakingRewardsFactory",
            "label": "duration",
            "offset": 0,
            "slot": "2",
            "type": "t_uint256"
          },
          {
            "astId": 8376,
            "contract": "contracts/StakingRewardsFactory.sol:StakingRewardsFactory",
            "label": "stakedTimeToClaim",
            "offset": 0,
            "slot": "3",
            "type": "t_array(t_uint256)dyn_storage"
          },
          {
            "astId": 8378,
            "contract": "contracts/StakingRewardsFactory.sol:StakingRewardsFactory",
            "label": "timelock",
            "offset": 0,
            "slot": "4",
            "type": "t_uint256"
          }
        ],
        "numberOfBytes": "160"
      },
      "t_uint256": {
        "encoding": "inplace",
        "label": "uint256",
        "numberOfBytes": "32"
      }
    }
  }
}