{
  "address": "0x779e75aeA4f21b214CAF1CF39AbbD3d4442F3588",
  "abi": [
    {
      "inputs": [
        {
          "internalType": "uint256[4]",
          "name": "_amountsToFee",
          "type": "uint256[4]"
        },
        {
          "internalType": "uint256[4]",
          "name": "_percents",
          "type": "uint256[4]"
        },
        {
          "internalType": "address",
          "name": "_feeReceiver",
          "type": "address"
        },
        {
          "internalType": "uint256",
          "name": "supply",
          "type": "uint256"
        }
      ],
      "stateMutability": "nonpayable",
      "type": "constructor"
    },
    {
      "anonymous": false,
      "inputs": [
        {
          "indexed": true,
          "internalType": "address",
          "name": "owner",
          "type": "address"
        },
        {
          "indexed": true,
          "internalType": "address",
          "name": "spender",
          "type": "address"
        },
        {
          "indexed": false,
          "internalType": "uint256",
          "name": "value",
          "type": "uint256"
        }
      ],
      "name": "Approval",
      "type": "event"
    },
    {
      "anonymous": false,
      "inputs": [
        {
          "indexed": false,
          "internalType": "address",
          "name": "account",
          "type": "address"
        }
      ],
      "name": "Paused",
      "type": "event"
    },
    {
      "anonymous": false,
      "inputs": [
        {
          "indexed": true,
          "internalType": "bytes32",
          "name": "role",
          "type": "bytes32"
        },
        {
          "indexed": true,
          "internalType": "bytes32",
          "name": "previousAdminRole",
          "type": "bytes32"
        },
        {
          "indexed": true,
          "internalType": "bytes32",
          "name": "newAdminRole",
          "type": "bytes32"
        }
      ],
      "name": "RoleAdminChanged",
      "type": "event"
    },
    {
      "anonymous": false,
      "inputs": [
        {
          "indexed": true,
          "internalType": "bytes32",
          "name": "role",
          "type": "bytes32"
        },
        {
          "indexed": true,
          "internalType": "address",
          "name": "account",
          "type": "address"
        },
        {
          "indexed": true,
          "internalType": "address",
          "name": "sender",
          "type": "address"
        }
      ],
      "name": "RoleGranted",
      "type": "event"
    },
    {
      "anonymous": false,
      "inputs": [
        {
          "indexed": true,
          "internalType": "bytes32",
          "name": "role",
          "type": "bytes32"
        },
        {
          "indexed": true,
          "internalType": "address",
          "name": "account",
          "type": "address"
        },
        {
          "indexed": true,
          "internalType": "address",
          "name": "sender",
          "type": "address"
        }
      ],
      "name": "RoleRevoked",
      "type": "event"
    },
    {
      "anonymous": false,
      "inputs": [
        {
          "indexed": true,
          "internalType": "address",
          "name": "from",
          "type": "address"
        },
        {
          "indexed": true,
          "internalType": "address",
          "name": "to",
          "type": "address"
        },
        {
          "indexed": false,
          "internalType": "uint256",
          "name": "value",
          "type": "uint256"
        }
      ],
      "name": "Transfer",
      "type": "event"
    },
    {
      "anonymous": false,
      "inputs": [
        {
          "indexed": false,
          "internalType": "address",
          "name": "account",
          "type": "address"
        }
      ],
      "name": "Unpaused",
      "type": "event"
    },
    {
      "inputs": [],
      "name": "DEFAULT_ADMIN_ROLE",
      "outputs": [
        {
          "internalType": "bytes32",
          "name": "",
          "type": "bytes32"
        }
      ],
      "stateMutability": "view",
      "type": "function"
    },
    {
      "inputs": [],
      "name": "MINTER_ROLE",
      "outputs": [
        {
          "internalType": "bytes32",
          "name": "",
          "type": "bytes32"
        }
      ],
      "stateMutability": "view",
      "type": "function"
    },
    {
      "inputs": [],
      "name": "PAUSER_ROLE",
      "outputs": [
        {
          "internalType": "bytes32",
          "name": "",
          "type": "bytes32"
        }
      ],
      "stateMutability": "view",
      "type": "function"
    },
    {
      "inputs": [
        {
          "internalType": "address",
          "name": "owner",
          "type": "address"
        },
        {
          "internalType": "address",
          "name": "spender",
          "type": "address"
        }
      ],
      "name": "allowance",
      "outputs": [
        {
          "internalType": "uint256",
          "name": "",
          "type": "uint256"
        }
      ],
      "stateMutability": "view",
      "type": "function"
    },
    {
      "inputs": [
        {
          "internalType": "address",
          "name": "spender",
          "type": "address"
        },
        {
          "internalType": "uint256",
          "name": "amount",
          "type": "uint256"
        }
      ],
      "name": "approve",
      "outputs": [
        {
          "internalType": "bool",
          "name": "",
          "type": "bool"
        }
      ],
      "stateMutability": "nonpayable",
      "type": "function"
    },
    {
      "inputs": [
        {
          "internalType": "address",
          "name": "account",
          "type": "address"
        }
      ],
      "name": "balanceOf",
      "outputs": [
        {
          "internalType": "uint256",
          "name": "",
          "type": "uint256"
        }
      ],
      "stateMutability": "view",
      "type": "function"
    },
    {
      "inputs": [
        {
          "internalType": "uint256",
          "name": "amount",
          "type": "uint256"
        }
      ],
      "name": "burn",
      "outputs": [],
      "stateMutability": "nonpayable",
      "type": "function"
    },
    {
      "inputs": [
        {
          "internalType": "address",
          "name": "account",
          "type": "address"
        },
        {
          "internalType": "uint256",
          "name": "amount",
          "type": "uint256"
        }
      ],
      "name": "burnFrom",
      "outputs": [],
      "stateMutability": "nonpayable",
      "type": "function"
    },
    {
      "inputs": [],
      "name": "decimals",
      "outputs": [
        {
          "internalType": "uint8",
          "name": "",
          "type": "uint8"
        }
      ],
      "stateMutability": "view",
      "type": "function"
    },
    {
      "inputs": [
        {
          "internalType": "address",
          "name": "spender",
          "type": "address"
        },
        {
          "internalType": "uint256",
          "name": "subtractedValue",
          "type": "uint256"
        }
      ],
      "name": "decreaseAllowance",
      "outputs": [
        {
          "internalType": "bool",
          "name": "",
          "type": "bool"
        }
      ],
      "stateMutability": "nonpayable",
      "type": "function"
    },
    {
      "inputs": [
        {
          "internalType": "address",
          "name": "",
          "type": "address"
        }
      ],
      "name": "excludeFeeWallet",
      "outputs": [
        {
          "internalType": "bool",
          "name": "",
          "type": "bool"
        }
      ],
      "stateMutability": "view",
      "type": "function"
    },
    {
      "inputs": [
        {
          "internalType": "bytes32",
          "name": "role",
          "type": "bytes32"
        }
      ],
      "name": "getRoleAdmin",
      "outputs": [
        {
          "internalType": "bytes32",
          "name": "",
          "type": "bytes32"
        }
      ],
      "stateMutability": "view",
      "type": "function"
    },
    {
      "inputs": [
        {
          "internalType": "bytes32",
          "name": "role",
          "type": "bytes32"
        },
        {
          "internalType": "uint256",
          "name": "index",
          "type": "uint256"
        }
      ],
      "name": "getRoleMember",
      "outputs": [
        {
          "internalType": "address",
          "name": "",
          "type": "address"
        }
      ],
      "stateMutability": "view",
      "type": "function"
    },
    {
      "inputs": [
        {
          "internalType": "bytes32",
          "name": "role",
          "type": "bytes32"
        }
      ],
      "name": "getRoleMemberCount",
      "outputs": [
        {
          "internalType": "uint256",
          "name": "",
          "type": "uint256"
        }
      ],
      "stateMutability": "view",
      "type": "function"
    },
    {
      "inputs": [
        {
          "internalType": "bytes32",
          "name": "role",
          "type": "bytes32"
        },
        {
          "internalType": "address",
          "name": "account",
          "type": "address"
        }
      ],
      "name": "grantRole",
      "outputs": [],
      "stateMutability": "nonpayable",
      "type": "function"
    },
    {
      "inputs": [
        {
          "internalType": "bytes32",
          "name": "role",
          "type": "bytes32"
        },
        {
          "internalType": "address",
          "name": "account",
          "type": "address"
        }
      ],
      "name": "hasRole",
      "outputs": [
        {
          "internalType": "bool",
          "name": "",
          "type": "bool"
        }
      ],
      "stateMutability": "view",
      "type": "function"
    },
    {
      "inputs": [
        {
          "internalType": "uint256",
          "name": "_amount",
          "type": "uint256"
        }
      ],
      "name": "howMuch",
      "outputs": [
        {
          "internalType": "uint256",
          "name": "_newAmount",
          "type": "uint256"
        }
      ],
      "stateMutability": "view",
      "type": "function"
    },
    {
      "inputs": [
        {
          "internalType": "address",
          "name": "spender",
          "type": "address"
        },
        {
          "internalType": "uint256",
          "name": "addedValue",
          "type": "uint256"
        }
      ],
      "name": "increaseAllowance",
      "outputs": [
        {
          "internalType": "bool",
          "name": "",
          "type": "bool"
        }
      ],
      "stateMutability": "nonpayable",
      "type": "function"
    },
    {
      "inputs": [
        {
          "internalType": "address",
          "name": "to",
          "type": "address"
        },
        {
          "internalType": "uint256",
          "name": "amount",
          "type": "uint256"
        }
      ],
      "name": "mint",
      "outputs": [],
      "stateMutability": "nonpayable",
      "type": "function"
    },
    {
      "inputs": [],
      "name": "name",
      "outputs": [
        {
          "internalType": "string",
          "name": "",
          "type": "string"
        }
      ],
      "stateMutability": "view",
      "type": "function"
    },
    {
      "inputs": [
        {
          "internalType": "uint256[4]",
          "name": "array",
          "type": "uint256[4]"
        }
      ],
      "name": "organize",
      "outputs": [
        {
          "internalType": "uint256[4]",
          "name": "",
          "type": "uint256[4]"
        }
      ],
      "stateMutability": "pure",
      "type": "function"
    },
    {
      "inputs": [],
      "name": "pause",
      "outputs": [],
      "stateMutability": "nonpayable",
      "type": "function"
    },
    {
      "inputs": [],
      "name": "paused",
      "outputs": [
        {
          "internalType": "bool",
          "name": "",
          "type": "bool"
        }
      ],
      "stateMutability": "view",
      "type": "function"
    },
    {
      "inputs": [
        {
          "internalType": "bytes32",
          "name": "role",
          "type": "bytes32"
        },
        {
          "internalType": "address",
          "name": "account",
          "type": "address"
        }
      ],
      "name": "renounceRole",
      "outputs": [],
      "stateMutability": "nonpayable",
      "type": "function"
    },
    {
      "inputs": [
        {
          "internalType": "bytes32",
          "name": "role",
          "type": "bytes32"
        },
        {
          "internalType": "address",
          "name": "account",
          "type": "address"
        }
      ],
      "name": "revokeRole",
      "outputs": [],
      "stateMutability": "nonpayable",
      "type": "function"
    },
    {
      "inputs": [
        {
          "internalType": "address[]",
          "name": "excludeFeeWallets",
          "type": "address[]"
        },
        {
          "internalType": "bool",
          "name": "access",
          "type": "bool"
        }
      ],
      "name": "setExcludeFeeWallets",
      "outputs": [],
      "stateMutability": "nonpayable",
      "type": "function"
    },
    {
      "inputs": [
        {
          "internalType": "address",
          "name": "_feeReceiver",
          "type": "address"
        }
      ],
      "name": "setFeeReceiver",
      "outputs": [],
      "stateMutability": "nonpayable",
      "type": "function"
    },
    {
      "inputs": [
        {
          "internalType": "uint256[4]",
          "name": "_amountsToFee",
          "type": "uint256[4]"
        },
        {
          "internalType": "uint256[4]",
          "name": "_percents",
          "type": "uint256[4]"
        }
      ],
      "name": "setTaxFee",
      "outputs": [],
      "stateMutability": "nonpayable",
      "type": "function"
    },
    {
      "inputs": [
        {
          "internalType": "bytes4",
          "name": "interfaceId",
          "type": "bytes4"
        }
      ],
      "name": "supportsInterface",
      "outputs": [
        {
          "internalType": "bool",
          "name": "",
          "type": "bool"
        }
      ],
      "stateMutability": "view",
      "type": "function"
    },
    {
      "inputs": [],
      "name": "symbol",
      "outputs": [
        {
          "internalType": "string",
          "name": "",
          "type": "string"
        }
      ],
      "stateMutability": "view",
      "type": "function"
    },
    {
      "inputs": [],
      "name": "totalSupply",
      "outputs": [
        {
          "internalType": "uint256",
          "name": "",
          "type": "uint256"
        }
      ],
      "stateMutability": "view",
      "type": "function"
    },
    {
      "inputs": [
        {
          "internalType": "address",
          "name": "recipient",
          "type": "address"
        },
        {
          "internalType": "uint256",
          "name": "amount",
          "type": "uint256"
        }
      ],
      "name": "transfer",
      "outputs": [
        {
          "internalType": "bool",
          "name": "",
          "type": "bool"
        }
      ],
      "stateMutability": "nonpayable",
      "type": "function"
    },
    {
      "inputs": [
        {
          "internalType": "address",
          "name": "sender",
          "type": "address"
        },
        {
          "internalType": "address",
          "name": "recipient",
          "type": "address"
        },
        {
          "internalType": "uint256",
          "name": "amount",
          "type": "uint256"
        }
      ],
      "name": "transferFrom",
      "outputs": [
        {
          "internalType": "bool",
          "name": "",
          "type": "bool"
        }
      ],
      "stateMutability": "nonpayable",
      "type": "function"
    },
    {
      "inputs": [],
      "name": "unpause",
      "outputs": [],
      "stateMutability": "nonpayable",
      "type": "function"
    }
  ],
  "transactionHash": "0x5d47c8430d5cd21333f8ea3bb4736bfc63684a7e30e9f99ac24879a11fa25523",
  "args": [
    [
      "5000000000000000000",
      "10000000000000000000",
      "15000000000000000000",
      "20000000000000000000"
    ],
    [
      5,
      10,
      15,
      20
    ],
    "0x306CD783E2B00b5269e937F896D2eF94Bc6d0d79",
    "1000000000000000000000000"
  ],
  "solcInputHash": "ae055405f0cc829a0ee0bd549a234b52",
  "bytecode": "0x60806040523480156200001157600080fd5b50604051620028e1380380620028e1833981016040819052620000349162000748565b6040518060400160405280600a8152602001693334b939ba2a37b5b2b760b11b8152506040518060400160405280600581526020016411925494d560da1b815250818181600590805190602001906200008f929190620005cc565b508051620000a5906006906020840190620005cc565b50506007805460ff1916905550620000bf6000336200019d565b620000eb7f9f2df0fed2c77648de5860a4cc508cd0818c85b8b8a1ab4ceeef8d981c8956a6336200019d565b620001177f65d7a28e3265b37a6474929f336521b332c1681b933f6cb9f3376673440d862a336200019d565b5062000125905084620001e0565b620001359060089060046200065b565b506200014183620001e0565b6200015190600c9060046200065b565b50601080546001600160a01b0319166001600160a01b038416179055336000818152601160205260409020805460ff191660011790556200019390826200031b565b5050505062000869565b620001b482826200041260201b62000d4f1760201c565b6000828152600160209081526040909120620001db91839062000d5962000422821b17901c565b505050565b620001ea6200068b565b8160005b6003811015620003145760005b60016200020a836004620007c8565b620002169190620007c8565b811015620002fe57826200022c826001620007ad565b600481106200023f576200023f62000853565b602002015183826004811062000259576200025962000853565b60200201511115620002e9578262000273826001620007ad565b6004811062000286576200028662000853565b6020020151838260048110620002a057620002a062000853565b6020020151848360048110620002ba57620002ba62000853565b6020020185620002cc856001620007ad565b60048110620002df57620002df62000853565b6020020191909152525b80620002f5816200081f565b915050620001fb565b50806200030b816200081f565b915050620001ee565b5092915050565b6001600160a01b038216620003775760405162461bcd60e51b815260206004820152601f60248201527f45524332303a206d696e7420746f20746865207a65726f20616464726573730060448201526064015b60405180910390fd5b620003856000838362000442565b8060046000828254620003999190620007ad565b90915550506001600160a01b03821660009081526002602052604081208054839290620003c8908490620007ad565b90915550506040518181526001600160a01b038316906000907fddf252ad1be2c89b69c2b068fc378daa952ba7f163c4a11628f55a4df523b3ef9060200160405180910390a35050565b6200041e82826200045a565b5050565b600062000439836001600160a01b038416620004fa565b90505b92915050565b620001db8383836200054c60201b62000d6e1760201c565b6000828152602081815260408083206001600160a01b038516845290915290205460ff166200041e576000828152602081815260408083206001600160a01b03851684529091529020805460ff19166001179055620004b63390565b6001600160a01b0316816001600160a01b0316837f2f8788117e7eff1d82e926ec794901d17c78024a50270940304540a733656f0d60405160405180910390a45050565b600081815260018301602052604081205462000543575081546001818101845560008481526020808220909301849055845484825282860190935260409020919091556200043c565b5060006200043c565b62000564838383620001db60201b620006c51760201c565b60075460ff1615620001db5760405162461bcd60e51b815260206004820152602a60248201527f45524332305061757361626c653a20746f6b656e207472616e736665722077686044820152691a5b19481c185d5cd95960b21b60648201526084016200036e565b828054620005da90620007e2565b90600052602060002090601f016020900481019282620005fe576000855562000649565b82601f106200061957805160ff191683800117855562000649565b8280016001018555821562000649579182015b82811115620006495782518255916020019190600101906200062c565b5062000657929150620006a9565b5090565b8260048101928215620006495791602002820182811115620006495782518255916020019190600101906200062c565b60405180608001604052806004906020820280368337509192915050565b5b80821115620006575760008155600101620006aa565b600082601f830112620006d257600080fd5b604051608081016001600160401b03811182821017156200070357634e487b7160e01b600052604160045260246000fd5b6040528083608081018610156200071957600080fd5b60005b60048110156200073d5781518352602092830192909101906001016200071c565b509195945050505050565b60008060008061014085870312156200076057600080fd5b6200076c8686620006c0565b93506200077d8660808701620006c0565b6101008601519093506001600160a01b03811681146200079c57600080fd5b610120959095015193969295505050565b60008219821115620007c357620007c36200083d565b500190565b600082821015620007dd57620007dd6200083d565b500390565b600181811c90821680620007f757607f821691505b602082108114156200081957634e487b7160e01b600052602260045260246000fd5b50919050565b60006000198214156200083657620008366200083d565b5060010190565b634e487b7160e01b600052601160045260246000fd5b634e487b7160e01b600052603260045260246000fd5b61206880620008796000396000f3fe608060405234801561001057600080fd5b50600436106102065760003560e01c806370a082311161011a578063a9059cbb116100ad578063dd62ed3e1161007c578063dd62ed3e14610474578063e4f74057146104ad578063e63ab1e9146104c0578063efdcd974146104e7578063f3fe8a47146104fa57600080fd5b8063a9059cbb14610414578063ca15c87314610427578063d53913931461043a578063d547741f1461046157600080fd5b806391d14854116100e957806391d14854146103de57806395d89b41146103f1578063a217fddf146103f9578063a457c2d71461040157600080fd5b806370a082311461036f57806379cc6790146103985780638456cb59146103ab5780639010d07c146103b357600080fd5b806336568abe1161019d57806342966c681161016c57806342966c681461030857806345385d551461031b5780634bbf511e1461032e5780635a93c0b5146103415780635c975abb1461036457600080fd5b806336568abe146102c757806339509351146102da5780633f4ba83a146102ed57806340c10f19146102f557600080fd5b806323b872dd116101d957806323b872dd1461026d578063248a9ca3146102805780632f2ff15d146102a3578063313ce567146102b857600080fd5b806301ffc9a71461020b57806306fdde0314610233578063095ea7b31461024857806318160ddd1461025b575b600080fd5b61021e610219366004611d9d565b61051a565b60405190151581526020015b60405180910390f35b61023b610545565b60405161022a9190611e6d565b61021e610256366004611c06565b6105d7565b6004545b60405190815260200161022a565b61021e61027b366004611bca565b6105ed565b61025f61028e366004611d3f565b60009081526020819052604090206001015490565b6102b66102b1366004611d58565b6106a3565b005b6040516012815260200161022a565b6102b66102d5366004611d58565b6106ca565b61021e6102e8366004611c06565b6106ec565b6102b6610723565b6102b6610303366004611c06565b6107c9565b6102b6610316366004611d3f565b61086c565b6102b6610329366004611d12565b610879565b6102b661033c366004611c30565b6108ba565b61021e61034f366004611b7c565b60116020526000908152604090205460ff1681565b60075460ff1661021e565b61025f61037d366004611b7c565b6001600160a01b031660009081526002602052604090205490565b6102b66103a6366004611c06565b61092d565b6102b66109b0565b6103c66103c1366004611d7b565b610a54565b6040516001600160a01b03909116815260200161022a565b61021e6103ec366004611d58565b610a73565b61023b610a9c565b61025f600081565b61021e61040f366004611c06565b610aab565b61021e610422366004611c06565b610b46565b61025f610435366004611d3f565b610b53565b61025f7f9f2df0fed2c77648de5860a4cc508cd0818c85b8b8a1ab4ceeef8d981c8956a681565b6102b661046f366004611d58565b610b6a565b61025f610482366004611b97565b6001600160a01b03918216600090815260036020908152604080832093909416825291909152205490565b61025f6104bb366004611d3f565b610b74565b61025f7f65d7a28e3265b37a6474929f336521b332c1681b933f6cb9f3376673440d862a81565b6102b66104f5366004611b7c565b610c0c565b61050d610508366004611cf6565b610c3b565b60405161022a9190611e3c565b60006001600160e01b03198216635a05180f60e01b148061053f575061053f82610dd4565b92915050565b60606005805461055490611f84565b80601f016020809104026020016040519081016040528092919081815260200182805461058090611f84565b80156105cd5780601f106105a2576101008083540402835291602001916105cd565b820191906000526020600020905b8154815290600101906020018083116105b057829003601f168201915b5050505050905090565b60006105e4338484610e09565b50600192915050565b60006105fa848484610f2e565b6001600160a01b0384166000908152600360209081526040808320338452909152902054828110156106845760405162461bcd60e51b815260206004820152602860248201527f45524332303a207472616e7366657220616d6f756e74206578636565647320616044820152676c6c6f77616e636560c01b60648201526084015b60405180910390fd5b61069885336106938685611f2a565b610e09565b506001949350505050565b6106ad8282610f8b565b60008281526001602052604090206106c59082610d59565b505050565b6106d48282610fb1565b60008281526001602052604090206106c5908261102b565b3360008181526003602090815260408083206001600160a01b038716845290915281205490916105e4918590610693908690611ed1565b61074d7f65d7a28e3265b37a6474929f336521b332c1681b933f6cb9f3376673440d862a33610a73565b6107bf5760405162461bcd60e51b815260206004820152603960248201527f45524332305072657365744d696e7465725061757365723a206d75737420686160448201527f76652070617573657220726f6c6520746f20756e706175736500000000000000606482015260840161067b565b6107c7611040565b565b6107f37f9f2df0fed2c77648de5860a4cc508cd0818c85b8b8a1ab4ceeef8d981c8956a633610a73565b61085e5760405162461bcd60e51b815260206004820152603660248201527f45524332305072657365744d696e7465725061757365723a206d7573742068616044820152751d99481b5a5b9d195c881c9bdb19481d1bc81b5a5b9d60521b606482015260840161067b565b61086882826110d3565b5050565b61087633826111be565b50565b60006108858133611319565b61088e83610c3b565b61089c906008906004611a69565b506108a682610c3b565b6108b490600c906004611a69565b50505050565b60006108c68133611319565b60005b83518110156108b45782601160008684815181106108e9576108e9612006565b6020908102919091018101516001600160a01b03168252810191909152604001600020805460ff19169115159190911790558061092581611fbf565b9150506108c9565b60006109398333610482565b9050818110156109975760405162461bcd60e51b8152602060048201526024808201527f45524332303a206275726e20616d6f756e74206578636565647320616c6c6f77604482015263616e636560e01b606482015260840161067b565b6109a683336106938585611f2a565b6106c583836111be565b6109da7f65d7a28e3265b37a6474929f336521b332c1681b933f6cb9f3376673440d862a33610a73565b610a4c5760405162461bcd60e51b815260206004820152603760248201527f45524332305072657365744d696e7465725061757365723a206d75737420686160448201527f76652070617573657220726f6c6520746f207061757365000000000000000000606482015260840161067b565b6107c761137d565b6000828152600160205260408120610a6c90836113f8565b9392505050565b6000918252602082815260408084206001600160a01b0393909316845291905290205460ff1690565b60606006805461055490611f84565b3360009081526003602090815260408083206001600160a01b038616845290915281205482811015610b2d5760405162461bcd60e51b815260206004820152602560248201527f45524332303a2064656372656173656420616c6c6f77616e63652062656c6f77604482015264207a65726f60d81b606482015260840161067b565b610b3c33856106938685611f2a565b5060019392505050565b60006105e4338484610f2e565b600081815260016020526040812061053f90611404565b6106d4828261140e565b6000806001815b6004811015610bd3578460088260048110610b9857610b98612006565b01541015610ba557610bc1565b600c8160048110610bb857610bb8612006565b01549250600191505b80610bcb81611fbf565b915050610b7b565b508015610c02576064610be68386611f0b565b610bf09190611ee9565b610bfa9085611f2a565b949350505050565b5060009392505050565b6000610c188133611319565b50601080546001600160a01b0319166001600160a01b0392909216919091179055565b610c43611aa7565b8160005b6003811015610d485760005b6001610c60836004611f2a565b610c6a9190611f2a565b811015610d355782610c7d826001611ed1565b60048110610c8d57610c8d612006565b6020020151838260048110610ca457610ca4612006565b60200201511115610d235782610cbb826001611ed1565b60048110610ccb57610ccb612006565b6020020151838260048110610ce257610ce2612006565b6020020151848360048110610cf957610cf9612006565b6020020185610d09856001611ed1565b60048110610d1957610d19612006565b6020020191909152525b80610d2d81611fbf565b915050610c53565b5080610d4081611fbf565b915050610c47565b5092915050565b6108688282611434565b6000610a6c836001600160a01b0384166114b8565b60075460ff16156106c55760405162461bcd60e51b815260206004820152602a60248201527f45524332305061757361626c653a20746f6b656e207472616e736665722077686044820152691a5b19481c185d5cd95960b21b606482015260840161067b565b60006001600160e01b03198216637965db0b60e01b148061053f57506301ffc9a760e01b6001600160e01b031983161461053f565b6001600160a01b038316610e6b5760405162461bcd60e51b8152602060048201526024808201527f45524332303a20617070726f76652066726f6d20746865207a65726f206164646044820152637265737360e01b606482015260840161067b565b6001600160a01b038216610ecc5760405162461bcd60e51b815260206004820152602260248201527f45524332303a20617070726f766520746f20746865207a65726f206164647265604482015261737360f01b606482015260840161067b565b6001600160a01b0383811660008181526003602090815260408083209487168084529482529182902085905590518481527f8c5be1e5ebec7d5bd14f71427d1e84f3dd0314c0f7b2291e5b200ac8c7c3b92591015b60405180910390a3505050565b3360009081526011602052604090205460ff1615610f51576106c5838383611507565b6000610f5c82610b74565b601054909150610f809085906001600160a01b0316610f7b8486611f2a565b611507565b6108b4848483611507565b600082815260208190526040902060010154610fa78133611319565b6106c58383611434565b6001600160a01b03811633146110215760405162461bcd60e51b815260206004820152602f60248201527f416363657373436f6e74726f6c3a2063616e206f6e6c792072656e6f756e636560448201526e103937b632b9903337b91039b2b63360891b606482015260840161067b565b61086882826116ea565b6000610a6c836001600160a01b03841661174f565b60075460ff166110895760405162461bcd60e51b815260206004820152601460248201527314185d5cd8589b194e881b9bdd081c185d5cd95960621b604482015260640161067b565b6007805460ff191690557f5db9ee0a495bf2e6ff9c91a7834c1ba4fdd244a5e8aa4e537bd38aeae4b073aa335b6040516001600160a01b03909116815260200160405180910390a1565b6001600160a01b0382166111295760405162461bcd60e51b815260206004820152601f60248201527f45524332303a206d696e7420746f20746865207a65726f206164647265737300604482015260640161067b565b6111356000838361183c565b80600460008282546111479190611ed1565b90915550506001600160a01b03821660009081526002602052604081208054839290611174908490611ed1565b90915550506040518181526001600160a01b038316906000907fddf252ad1be2c89b69c2b068fc378daa952ba7f163c4a11628f55a4df523b3ef9060200160405180910390a35050565b6001600160a01b03821661121e5760405162461bcd60e51b815260206004820152602160248201527f45524332303a206275726e2066726f6d20746865207a65726f206164647265736044820152607360f81b606482015260840161067b565b61122a8260008361183c565b6001600160a01b0382166000908152600260205260409020548181101561129e5760405162461bcd60e51b815260206004820152602260248201527f45524332303a206275726e20616d6f756e7420657863656564732062616c616e604482015261636560f01b606482015260840161067b565b6112a88282611f2a565b6001600160a01b038416600090815260026020526040812091909155600480548492906112d6908490611f2a565b90915550506040518281526000906001600160a01b038516907fddf252ad1be2c89b69c2b068fc378daa952ba7f163c4a11628f55a4df523b3ef90602001610f21565b6113238282610a73565b6108685761133b816001600160a01b03166014611847565b611346836020611847565b604051602001611357929190611dc7565b60408051601f198184030181529082905262461bcd60e51b825261067b91600401611e6d565b60075460ff16156113c35760405162461bcd60e51b815260206004820152601060248201526f14185d5cd8589b194e881c185d5cd95960821b604482015260640161067b565b6007805460ff191660011790557f62e78cea01bee320cd4e420270b5ea74000d11b0c9f74754ebdbfc544b05a2586110b63390565b6000610a6c83836119e3565b600061053f825490565b60008281526020819052604090206001015461142a8133611319565b6106c583836116ea565b61143e8282610a73565b610868576000828152602081815260408083206001600160a01b03851684529091529020805460ff191660011790556114743390565b6001600160a01b0316816001600160a01b0316837f2f8788117e7eff1d82e926ec794901d17c78024a50270940304540a733656f0d60405160405180910390a45050565b60008181526001830160205260408120546114ff5750815460018181018455600084815260208082209093018490558454848252828601909352604090209190915561053f565b50600061053f565b6001600160a01b03831661156b5760405162461bcd60e51b815260206004820152602560248201527f45524332303a207472616e736665722066726f6d20746865207a65726f206164604482015264647265737360d81b606482015260840161067b565b6001600160a01b0382166115cd5760405162461bcd60e51b815260206004820152602360248201527f45524332303a207472616e7366657220746f20746865207a65726f206164647260448201526265737360e81b606482015260840161067b565b6115d883838361183c565b6001600160a01b038316600090815260026020526040902054818110156116505760405162461bcd60e51b815260206004820152602660248201527f45524332303a207472616e7366657220616d6f756e7420657863656564732062604482015265616c616e636560d01b606482015260840161067b565b61165a8282611f2a565b6001600160a01b038086166000908152600260205260408082209390935590851681529081208054849290611690908490611ed1565b92505081905550826001600160a01b0316846001600160a01b03167fddf252ad1be2c89b69c2b068fc378daa952ba7f163c4a11628f55a4df523b3ef846040516116dc91815260200190565b60405180910390a350505050565b6116f48282610a73565b15610868576000828152602081815260408083206001600160a01b0385168085529252808320805460ff1916905551339285917ff6391f5c32d9c69d2a47ea670b442974b53935d1edc7fd64eb21e047a839171b9190a45050565b60008181526001830160205260408120548015611832576000611773600183611f2a565b855490915060009061178790600190611f2a565b905060008660000182815481106117a0576117a0612006565b90600052602060002001549050808760000184815481106117c3576117c3612006565b6000918252602080832090910192909255828152600189019091526040902084905586548790806117f6576117f6611ff0565b6001900381819060005260206000200160009055905586600101600087815260200190815260200160002060009055600194505050505061053f565b600091505061053f565b6106c5838383610d6e565b60606000611856836002611f0b565b611861906002611ed1565b67ffffffffffffffff8111156118795761187961201c565b6040519080825280601f01601f1916602001820160405280156118a3576020820181803683370190505b509050600360fc1b816000815181106118be576118be612006565b60200101906001600160f81b031916908160001a905350600f60fb1b816001815181106118ed576118ed612006565b60200101906001600160f81b031916908160001a9053506000611911846002611f0b565b61191c906001611ed1565b90505b6001811115611994576f181899199a1a9b1b9c1cb0b131b232b360811b85600f166010811061195057611950612006565b1a60f81b82828151811061196657611966612006565b60200101906001600160f81b031916908160001a90535060049490941c9361198d81611f6d565b905061191f565b508315610a6c5760405162461bcd60e51b815260206004820181905260248201527f537472696e67733a20686578206c656e67746820696e73756666696369656e74604482015260640161067b565b81546000908210611a415760405162461bcd60e51b815260206004820152602260248201527f456e756d657261626c655365743a20696e646578206f7574206f6620626f756e604482015261647360f01b606482015260840161067b565b826000018281548110611a5657611a56612006565b9060005260206000200154905092915050565b8260048101928215611a97579160200282015b82811115611a97578251825591602001919060010190611a7c565b50611aa3929150611ac5565b5090565b60405180608001604052806004906020820280368337509192915050565b5b80821115611aa35760008155600101611ac6565b80356001600160a01b0381168114611af157600080fd5b919050565b600082601f830112611b0757600080fd5b6040516080810181811067ffffffffffffffff82111715611b2a57611b2a61201c565b604052808360808101861015611b3f57600080fd5b60005b6004811015611b61578135835260209283019290910190600101611b42565b509195945050505050565b80358015158114611af157600080fd5b600060208284031215611b8e57600080fd5b610a6c82611ada565b60008060408385031215611baa57600080fd5b611bb383611ada565b9150611bc160208401611ada565b90509250929050565b600080600060608486031215611bdf57600080fd5b611be884611ada565b9250611bf660208501611ada565b9150604084013590509250925092565b60008060408385031215611c1957600080fd5b611c2283611ada565b946020939093013593505050565b60008060408385031215611c4357600080fd5b823567ffffffffffffffff80821115611c5b57600080fd5b818501915085601f830112611c6f57600080fd5b8135602082821115611c8357611c8361201c565b8160051b9250611c94818401611ea0565b8281528181019085830185870184018b1015611caf57600080fd5b600096505b84871015611cd957611cc581611ada565b835260019690960195918301918301611cb4565b509650611ce99050878201611b6c565b9450505050509250929050565b600060808284031215611d0857600080fd5b610a6c8383611af6565b6000806101008385031215611d2657600080fd5b611d308484611af6565b9150611bc18460808501611af6565b600060208284031215611d5157600080fd5b5035919050565b60008060408385031215611d6b57600080fd5b82359150611bc160208401611ada565b60008060408385031215611d8e57600080fd5b50508035926020909101359150565b600060208284031215611daf57600080fd5b81356001600160e01b031981168114610a6c57600080fd5b7f416363657373436f6e74726f6c3a206163636f756e7420000000000000000000815260008351611dff816017850160208801611f41565b7001034b99036b4b9b9b4b733903937b6329607d1b6017918401918201528351611e30816028840160208801611f41565b01602801949350505050565b60808101818360005b6004811015611e64578151835260209283019290910190600101611e45565b50505092915050565b6020815260008251806020840152611e8c816040850160208701611f41565b601f01601f19169190910160400192915050565b604051601f8201601f1916810167ffffffffffffffff81118282101715611ec957611ec961201c565b604052919050565b60008219821115611ee457611ee4611fda565b500190565b600082611f0657634e487b7160e01b600052601260045260246000fd5b500490565b6000816000190483118215151615611f2557611f25611fda565b500290565b600082821015611f3c57611f3c611fda565b500390565b60005b83811015611f5c578181015183820152602001611f44565b838111156108b45750506000910152565b600081611f7c57611f7c611fda565b506000190190565b600181811c90821680611f9857607f821691505b60208210811415611fb957634e487b7160e01b600052602260045260246000fd5b50919050565b6000600019821415611fd357611fd3611fda565b5060010190565b634e487b7160e01b600052601160045260246000fd5b634e487b7160e01b600052603160045260246000fd5b634e487b7160e01b600052603260045260246000fd5b634e487b7160e01b600052604160045260246000fdfea2646970667358221220ae5fc7c68a4ccd1b7f8d0b64481b8b30697759079fa37c87c55f2036cab4b92864736f6c63430008070033",
  "devdoc": {
    "kind": "dev",
    "methods": {
      "allowance(address,address)": {
        "details": "See {IERC20-allowance}."
      },
      "approve(address,uint256)": {
        "details": "See {IERC20-approve}. Requirements: - `spender` cannot be the zero address."
      },
      "balanceOf(address)": {
        "details": "See {IERC20-balanceOf}."
      },
      "burn(uint256)": {
        "details": "Destroys `amount` tokens from the caller. See {ERC20-_burn}."
      },
      "burnFrom(address,uint256)": {
        "details": "Destroys `amount` tokens from `account`, deducting from the caller's allowance. See {ERC20-_burn} and {ERC20-allowance}. Requirements: - the caller must have allowance for ``accounts``'s tokens of at least `amount`."
      },
      "decimals()": {
        "details": "Returns the number of decimals used to get its user representation. For example, if `decimals` equals `2`, a balance of `505` tokens should be displayed to a user as `5,05` (`505 / 10 ** 2`). Tokens usually opt for a value of 18, imitating the relationship between Ether and Wei. This is the value {ERC20} uses, unless this function is overridden; NOTE: This information is only used for _display_ purposes: it in no way affects any of the arithmetic of the contract, including {IERC20-balanceOf} and {IERC20-transfer}."
      },
      "decreaseAllowance(address,uint256)": {
        "details": "Atomically decreases the allowance granted to `spender` by the caller. This is an alternative to {approve} that can be used as a mitigation for problems described in {IERC20-approve}. Emits an {Approval} event indicating the updated allowance. Requirements: - `spender` cannot be the zero address. - `spender` must have allowance for the caller of at least `subtractedValue`."
      },
      "getRoleAdmin(bytes32)": {
        "details": "Returns the admin role that controls `role`. See {grantRole} and {revokeRole}. To change a role's admin, use {_setRoleAdmin}."
      },
      "getRoleMember(bytes32,uint256)": {
        "details": "Returns one of the accounts that have `role`. `index` must be a value between 0 and {getRoleMemberCount}, non-inclusive. Role bearers are not sorted in any particular way, and their ordering may change at any point. WARNING: When using {getRoleMember} and {getRoleMemberCount}, make sure you perform all queries on the same block. See the following https://forum.openzeppelin.com/t/iterating-over-elements-on-enumerableset-in-openzeppelin-contracts/2296[forum post] for more information."
      },
      "getRoleMemberCount(bytes32)": {
        "details": "Returns the number of accounts that have `role`. Can be used together with {getRoleMember} to enumerate all bearers of a role."
      },
      "grantRole(bytes32,address)": {
        "details": "Overload {grantRole} to track enumerable memberships"
      },
      "hasRole(bytes32,address)": {
        "details": "Returns `true` if `account` has been granted `role`."
      },
      "increaseAllowance(address,uint256)": {
        "details": "Atomically increases the allowance granted to `spender` by the caller. This is an alternative to {approve} that can be used as a mitigation for problems described in {IERC20-approve}. Emits an {Approval} event indicating the updated allowance. Requirements: - `spender` cannot be the zero address."
      },
      "mint(address,uint256)": {
        "details": "Creates `amount` new tokens for `to`. See {ERC20-_mint}. Requirements: - the caller must have the `MINTER_ROLE`."
      },
      "name()": {
        "details": "Returns the name of the token."
      },
      "pause()": {
        "details": "Pauses all token transfers. See {ERC20Pausable} and {Pausable-_pause}. Requirements: - the caller must have the `PAUSER_ROLE`."
      },
      "paused()": {
        "details": "Returns true if the contract is paused, and false otherwise."
      },
      "renounceRole(bytes32,address)": {
        "details": "Overload {renounceRole} to track enumerable memberships"
      },
      "revokeRole(bytes32,address)": {
        "details": "Overload {revokeRole} to track enumerable memberships"
      },
      "supportsInterface(bytes4)": {
        "details": "See {IERC165-supportsInterface}."
      },
      "symbol()": {
        "details": "Returns the symbol of the token, usually a shorter version of the name."
      },
      "totalSupply()": {
        "details": "See {IERC20-totalSupply}."
      },
      "transfer(address,uint256)": {
        "details": "See {IERC20-transfer}. Requirements: - `recipient` cannot be the zero address. - the caller must have a balance of at least `amount`."
      },
      "transferFrom(address,address,uint256)": {
        "details": "See {IERC20-transferFrom}. Emits an {Approval} event indicating the updated allowance. This is not required by the EIP. See the note at the beginning of {ERC20}. Requirements: - `sender` and `recipient` cannot be the zero address. - `sender` must have a balance of at least `amount`. - the caller must have allowance for ``sender``'s tokens of at least `amount`."
      },
      "unpause()": {
        "details": "Unpauses all token transfers. See {ERC20Pausable} and {Pausable-_unpause}. Requirements: - the caller must have the `PAUSER_ROLE`."
      }
    },
    "title": "token",
    "version": 1
  },
  "userdoc": {
    "kind": "user",
    "methods": {},
    "version": 1
  },
  "storageLayout": {
    "storage": [
      {
        "astId": 1237,
        "contract": "contracts/firstToken.sol:firstToken",
        "label": "_roles",
        "offset": 0,
        "slot": "0",
        "type": "t_mapping(t_bytes32,t_struct(RoleData)1232_storage)"
      },
      {
        "astId": 1578,
        "contract": "contracts/firstToken.sol:firstToken",
        "label": "_roleMembers",
        "offset": 0,
        "slot": "1",
        "type": "t_mapping(t_bytes32,t_struct(AddressSet)4272_storage)"
      },
      {
        "astId": 1991,
        "contract": "contracts/firstToken.sol:firstToken",
        "label": "_balances",
        "offset": 0,
        "slot": "2",
        "type": "t_mapping(t_address,t_uint256)"
      },
      {
        "astId": 1997,
        "contract": "contracts/firstToken.sol:firstToken",
        "label": "_allowances",
        "offset": 0,
        "slot": "3",
        "type": "t_mapping(t_address,t_mapping(t_address,t_uint256))"
      },
      {
        "astId": 1999,
        "contract": "contracts/firstToken.sol:firstToken",
        "label": "_totalSupply",
        "offset": 0,
        "slot": "4",
        "type": "t_uint256"
      },
      {
        "astId": 2001,
        "contract": "contracts/firstToken.sol:firstToken",
        "label": "_name",
        "offset": 0,
        "slot": "5",
        "type": "t_string_storage"
      },
      {
        "astId": 2003,
        "contract": "contracts/firstToken.sol:firstToken",
        "label": "_symbol",
        "offset": 0,
        "slot": "6",
        "type": "t_string_storage"
      },
      {
        "astId": 1860,
        "contract": "contracts/firstToken.sol:firstToken",
        "label": "_paused",
        "offset": 0,
        "slot": "7",
        "type": "t_bool"
      },
      {
        "astId": 7496,
        "contract": "contracts/firstToken.sol:firstToken",
        "label": "amountsToFee",
        "offset": 0,
        "slot": "8",
        "type": "t_array(t_uint256)4_storage"
      },
      {
        "astId": 7500,
        "contract": "contracts/firstToken.sol:firstToken",
        "label": "percents",
        "offset": 0,
        "slot": "12",
        "type": "t_array(t_uint256)4_storage"
      },
      {
        "astId": 7502,
        "contract": "contracts/firstToken.sol:firstToken",
        "label": "feeReceiver",
        "offset": 0,
        "slot": "16",
        "type": "t_address"
      },
      {
        "astId": 7506,
        "contract": "contracts/firstToken.sol:firstToken",
        "label": "excludeFeeWallet",
        "offset": 0,
        "slot": "17",
        "type": "t_mapping(t_address,t_bool)"
      }
    ],
    "types": {
      "t_address": {
        "encoding": "inplace",
        "label": "address",
        "numberOfBytes": "20"
      },
      "t_array(t_bytes32)dyn_storage": {
        "base": "t_bytes32",
        "encoding": "dynamic_array",
        "label": "bytes32[]",
        "numberOfBytes": "32"
      },
      "t_array(t_uint256)4_storage": {
        "base": "t_uint256",
        "encoding": "inplace",
        "label": "uint256[4]",
        "numberOfBytes": "128"
      },
      "t_bool": {
        "encoding": "inplace",
        "label": "bool",
        "numberOfBytes": "1"
      },
      "t_bytes32": {
        "encoding": "inplace",
        "label": "bytes32",
        "numberOfBytes": "32"
      },
      "t_mapping(t_address,t_bool)": {
        "encoding": "mapping",
        "key": "t_address",
        "label": "mapping(address => bool)",
        "numberOfBytes": "32",
        "value": "t_bool"
      },
      "t_mapping(t_address,t_mapping(t_address,t_uint256))": {
        "encoding": "mapping",
        "key": "t_address",
        "label": "mapping(address => mapping(address => uint256))",
        "numberOfBytes": "32",
        "value": "t_mapping(t_address,t_uint256)"
      },
      "t_mapping(t_address,t_uint256)": {
        "encoding": "mapping",
        "key": "t_address",
        "label": "mapping(address => uint256)",
        "numberOfBytes": "32",
        "value": "t_uint256"
      },
      "t_mapping(t_bytes32,t_struct(AddressSet)4272_storage)": {
        "encoding": "mapping",
        "key": "t_bytes32",
        "label": "mapping(bytes32 => struct EnumerableSet.AddressSet)",
        "numberOfBytes": "32",
        "value": "t_struct(AddressSet)4272_storage"
      },
      "t_mapping(t_bytes32,t_struct(RoleData)1232_storage)": {
        "encoding": "mapping",
        "key": "t_bytes32",
        "label": "mapping(bytes32 => struct AccessControl.RoleData)",
        "numberOfBytes": "32",
        "value": "t_struct(RoleData)1232_storage"
      },
      "t_mapping(t_bytes32,t_uint256)": {
        "encoding": "mapping",
        "key": "t_bytes32",
        "label": "mapping(bytes32 => uint256)",
        "numberOfBytes": "32",
        "value": "t_uint256"
      },
      "t_string_storage": {
        "encoding": "bytes",
        "label": "string",
        "numberOfBytes": "32"
      },
      "t_struct(AddressSet)4272_storage": {
        "encoding": "inplace",
        "label": "struct EnumerableSet.AddressSet",
        "members": [
          {
            "astId": 4271,
            "contract": "contracts/firstToken.sol:firstToken",
            "label": "_inner",
            "offset": 0,
            "slot": "0",
            "type": "t_struct(Set)3997_storage"
          }
        ],
        "numberOfBytes": "64"
      },
      "t_struct(RoleData)1232_storage": {
        "encoding": "inplace",
        "label": "struct AccessControl.RoleData",
        "members": [
          {
            "astId": 1229,
            "contract": "contracts/firstToken.sol:firstToken",
            "label": "members",
            "offset": 0,
            "slot": "0",
            "type": "t_mapping(t_address,t_bool)"
          },
          {
            "astId": 1231,
            "contract": "contracts/firstToken.sol:firstToken",
            "label": "adminRole",
            "offset": 0,
            "slot": "1",
            "type": "t_bytes32"
          }
        ],
        "numberOfBytes": "64"
      },
      "t_struct(Set)3997_storage": {
        "encoding": "inplace",
        "label": "struct EnumerableSet.Set",
        "members": [
          {
            "astId": 3992,
            "contract": "contracts/firstToken.sol:firstToken",
            "label": "_values",
            "offset": 0,
            "slot": "0",
            "type": "t_array(t_bytes32)dyn_storage"
          },
          {
            "astId": 3996,
            "contract": "contracts/firstToken.sol:firstToken",
            "label": "_indexes",
            "offset": 0,
            "slot": "1",
            "type": "t_mapping(t_bytes32,t_uint256)"
          }
        ],
        "numberOfBytes": "64"
      },
      "t_uint256": {
        "encoding": "inplace",
        "label": "uint256",
        "numberOfBytes": "32"
      }
    }
  }
}